{
	"student.sol": {
		"StudentData": {
			"abi": [
				{
					"inputs": [
						{
							"internalType": "uint256",
							"name": "_studentId",
							"type": "uint256"
						},
						{
							"internalType": "string",
							"name": "_name",
							"type": "string"
						},
						{
							"internalType": "uint256",
							"name": "_age",
							"type": "uint256"
						}
					],
					"name": "addStudent",
					"outputs": [],
					"stateMutability": "nonpayable",
					"type": "function"
				},
				{
					"inputs": [],
					"name": "getNumberOfStudents",
					"outputs": [
						{
							"internalType": "uint256",
							"name": "",
							"type": "uint256"
						}
					],
					"stateMutability": "view",
					"type": "function"
				},
				{
					"inputs": [
						{
							"internalType": "uint256",
							"name": "_index",
							"type": "uint256"
						}
					],
					"name": "getStudentByIndex",
					"outputs": [
						{
							"internalType": "uint256",
							"name": "",
							"type": "uint256"
						},
						{
							"internalType": "string",
							"name": "",
							"type": "string"
						},
						{
							"internalType": "uint256",
							"name": "",
							"type": "uint256"
						}
					],
					"stateMutability": "view",
					"type": "function"
				},
				{
					"inputs": [
						{
							"internalType": "uint256",
							"name": "_index",
							"type": "uint256"
						},
						{
							"internalType": "string",
							"name": "_newName",
							"type": "string"
						},
						{
							"internalType": "uint256",
							"name": "_newAge",
							"type": "uint256"
						}
					],
					"name": "updateStudent",
					"outputs": [],
					"stateMutability": "nonpayable",
					"type": "function"
				},
				{
					"stateMutability": "payable",
					"type": "receive"
				}
			],
			"devdoc": {
				"kind": "dev",
				"methods": {},
				"version": 1
			},
			"evm": {
				"assembly": "    /* \"student.sol\":60:1533  contract StudentData {... */\n  mstore(0x40, 0x80)\n  callvalue\n  dup1\n  iszero\n  tag_1\n  jumpi\n  0x00\n  dup1\n  revert\ntag_1:\n  pop\n  dataSize(sub_0)\n  dup1\n  dataOffset(sub_0)\n  0x00\n  codecopy\n  0x00\n  return\nstop\n\nsub_0: assembly {\n        /* \"student.sol\":60:1533  contract StudentData {... */\n      mstore(0x40, 0x80)\n      jumpi(tag_1, lt(calldatasize, 0x04))\n      shr(0xe0, calldataload(0x00))\n      dup1\n      0x945b7bd6\n      eq\n      tag_3\n      jumpi\n      dup1\n      0xc1bea1db\n      eq\n      tag_4\n      jumpi\n      dup1\n      0xdc78302b\n      eq\n      tag_5\n      jumpi\n      dup1\n      0xec7505b1\n      eq\n      tag_6\n      jumpi\n      jump(tag_2)\n    tag_1:\n      jumpi(tag_2, calldatasize)\n      stop\n    tag_2:\n      0x00\n      dup1\n      revert\n        /* \"student.sol\":778:880  function getNumberOfStudents() public view returns (uint256) {... */\n    tag_3:\n      callvalue\n      dup1\n      iszero\n      tag_9\n      jumpi\n      0x00\n      dup1\n      revert\n    tag_9:\n      pop\n      tag_10\n      tag_11\n      jump\t// in\n    tag_10:\n      mload(0x40)\n      tag_12\n      swap2\n      swap1\n      tag_13\n      jump\t// in\n    tag_12:\n      mload(0x40)\n      dup1\n      swap2\n      sub\n      swap1\n      return\n        /* \"student.sol\":538:735  function addStudent(uint256 _studentId, string memory _name, uint256 _age) public {... */\n    tag_4:\n      callvalue\n      dup1\n      iszero\n      tag_14\n      jumpi\n      0x00\n      dup1\n      revert\n    tag_14:\n      pop\n      tag_15\n      0x04\n      dup1\n      calldatasize\n      sub\n      dup2\n      add\n      swap1\n      tag_16\n      swap2\n      swap1\n      tag_17\n      jump\t// in\n    tag_16:\n      tag_18\n      jump\t// in\n    tag_15:\n      stop\n        /* \"student.sol\":925:1207  function getStudentByIndex(uint256 _index) public view returns (uint256, string memory, uint256) {... */\n    tag_5:\n      callvalue\n      dup1\n      iszero\n      tag_19\n      jumpi\n      0x00\n      dup1\n      revert\n    tag_19:\n      pop\n      tag_20\n      0x04\n      dup1\n      calldatasize\n      sub\n      dup2\n      add\n      swap1\n      tag_21\n      swap2\n      swap1\n      tag_22\n      jump\t// in\n    tag_21:\n      tag_23\n      jump\t// in\n    tag_20:\n      mload(0x40)\n      tag_24\n      swap4\n      swap3\n      swap2\n      swap1\n      tag_25\n      jump\t// in\n    tag_24:\n      mload(0x40)\n      dup1\n      swap2\n      sub\n      swap1\n      return\n        /* \"student.sol\":1255:1530  function updateStudent(uint256 _index, string memory _newName, uint256 _newAge) public {... */\n    tag_6:\n      callvalue\n      dup1\n      iszero\n      tag_26\n      jumpi\n      0x00\n      dup1\n      revert\n    tag_26:\n      pop\n      tag_27\n      0x04\n      dup1\n      calldatasize\n      sub\n      dup2\n      add\n      swap1\n      tag_28\n      swap2\n      swap1\n      tag_17\n      jump\t// in\n    tag_28:\n      tag_29\n      jump\t// in\n    tag_27:\n      stop\n        /* \"student.sol\":778:880  function getNumberOfStudents() public view returns (uint256) {... */\n    tag_11:\n        /* \"student.sol\":830:837  uint256 */\n      0x00\n        /* \"student.sol\":857:865  students */\n      dup1\n        /* \"student.sol\":857:872  students.length */\n      dup1\n      sload\n      swap1\n      pop\n        /* \"student.sol\":850:872  return students.length */\n      swap1\n      pop\n        /* \"student.sol\":778:880  function getNumberOfStudents() public view returns (uint256) {... */\n      swap1\n      jump\t// out\n        /* \"student.sol\":538:735  function addStudent(uint256 _studentId, string memory _name, uint256 _age) public {... */\n    tag_18:\n        /* \"student.sol\":631:656  Student memory newStudent */\n      0x00\n        /* \"student.sol\":659:691  Student(_studentId, _name, _age) */\n      mload(0x40)\n      dup1\n      0x60\n      add\n      0x40\n      mstore\n      dup1\n        /* \"student.sol\":667:677  _studentId */\n      dup6\n        /* \"student.sol\":659:691  Student(_studentId, _name, _age) */\n      dup2\n      mstore\n      0x20\n      add\n        /* \"student.sol\":679:684  _name */\n      dup5\n        /* \"student.sol\":659:691  Student(_studentId, _name, _age) */\n      dup2\n      mstore\n      0x20\n      add\n        /* \"student.sol\":686:690  _age */\n      dup4\n        /* \"student.sol\":659:691  Student(_studentId, _name, _age) */\n      dup2\n      mstore\n      pop\n        /* \"student.sol\":631:691  Student memory newStudent = Student(_studentId, _name, _age) */\n      swap1\n      pop\n        /* \"student.sol\":702:710  students */\n      0x00\n        /* \"student.sol\":716:726  newStudent */\n      dup2\n        /* \"student.sol\":702:727  students.push(newStudent) */\n      swap1\n      dup1\n      0x01\n      dup2\n      sload\n      add\n      dup1\n      dup3\n      sstore\n      dup1\n      swap2\n      pop\n      pop\n      0x01\n      swap1\n      sub\n      swap1\n      0x00\n      mstore\n      keccak256(0x00, 0x20)\n      swap1\n      0x03\n      mul\n      add\n      0x00\n      swap1\n      swap2\n      swap1\n      swap2\n      swap1\n      swap2\n      pop\n      0x00\n      dup3\n      add\n      mload\n      dup2\n      0x00\n      add\n      sstore\n      0x20\n      dup3\n      add\n      mload\n      dup2\n      0x01\n      add\n      swap1\n      dup2\n      tag_33\n      swap2\n      swap1\n      tag_34\n      jump\t// in\n    tag_33:\n      pop\n      0x40\n      dup3\n      add\n      mload\n      dup2\n      0x02\n      add\n      sstore\n      pop\n      pop\n        /* \"student.sol\":620:735  {... */\n      pop\n        /* \"student.sol\":538:735  function addStudent(uint256 _studentId, string memory _name, uint256 _age) public {... */\n      pop\n      pop\n      pop\n      jump\t// out\n        /* \"student.sol\":925:1207  function getStudentByIndex(uint256 _index) public view returns (uint256, string memory, uint256) {... */\n    tag_23:\n        /* \"student.sol\":989:996  uint256 */\n      0x00\n        /* \"student.sol\":998:1011  string memory */\n      0x60\n        /* \"student.sol\":1013:1020  uint256 */\n      0x00\n        /* \"student.sol\":1050:1058  students */\n      dup1\n        /* \"student.sol\":1050:1065  students.length */\n      dup1\n      sload\n      swap1\n      pop\n        /* \"student.sol\":1041:1047  _index */\n      dup5\n        /* \"student.sol\":1041:1065  _index < students.length */\n      lt\n        /* \"student.sol\":1033:1083  require(_index < students.length, \"Invalid index\") */\n      tag_36\n      jumpi\n      mload(0x40)\n      0x08c379a000000000000000000000000000000000000000000000000000000000\n      dup2\n      mstore\n      0x04\n      add\n      tag_37\n      swap1\n      tag_38\n      jump\t// in\n    tag_37:\n      mload(0x40)\n      dup1\n      swap2\n      sub\n      swap1\n      revert\n    tag_36:\n        /* \"student.sol\":1094:1116  Student memory student */\n      0x00\n        /* \"student.sol\":1119:1127  students */\n      dup1\n        /* \"student.sol\":1128:1134  _index */\n      dup6\n        /* \"student.sol\":1119:1135  students[_index] */\n      dup2\n      sload\n      dup2\n      lt\n      tag_39\n      jumpi\n      tag_40\n      tag_41\n      jump\t// in\n    tag_40:\n    tag_39:\n      swap1\n      0x00\n      mstore\n      keccak256(0x00, 0x20)\n      swap1\n      0x03\n      mul\n      add\n        /* \"student.sol\":1094:1135  Student memory student = students[_index] */\n      mload(0x40)\n      dup1\n      0x60\n      add\n      0x40\n      mstore\n      swap1\n      dup2\n      0x00\n      dup3\n      add\n      sload\n      dup2\n      mstore\n      0x20\n      add\n      0x01\n      dup3\n      add\n      dup1\n      sload\n      tag_43\n      swap1\n      tag_44\n      jump\t// in\n    tag_43:\n      dup1\n      0x1f\n      add\n      0x20\n      dup1\n      swap2\n      div\n      mul\n      0x20\n      add\n      mload(0x40)\n      swap1\n      dup2\n      add\n      0x40\n      mstore\n      dup1\n      swap3\n      swap2\n      swap1\n      dup2\n      dup2\n      mstore\n      0x20\n      add\n      dup3\n      dup1\n      sload\n      tag_45\n      swap1\n      tag_44\n      jump\t// in\n    tag_45:\n      dup1\n      iszero\n      tag_46\n      jumpi\n      dup1\n      0x1f\n      lt\n      tag_47\n      jumpi\n      0x0100\n      dup1\n      dup4\n      sload\n      div\n      mul\n      dup4\n      mstore\n      swap2\n      0x20\n      add\n      swap2\n      jump(tag_46)\n    tag_47:\n      dup3\n      add\n      swap2\n      swap1\n      0x00\n      mstore\n      keccak256(0x00, 0x20)\n      swap1\n    tag_48:\n      dup2\n      sload\n      dup2\n      mstore\n      swap1\n      0x01\n      add\n      swap1\n      0x20\n      add\n      dup1\n      dup4\n      gt\n      tag_48\n      jumpi\n      dup3\n      swap1\n      sub\n      0x1f\n      and\n      dup3\n      add\n      swap2\n    tag_46:\n      pop\n      pop\n      pop\n      pop\n      pop\n      dup2\n      mstore\n      0x20\n      add\n      0x02\n      dup3\n      add\n      sload\n      dup2\n      mstore\n      pop\n      pop\n      swap1\n      pop\n        /* \"student.sol\":1154:1161  student */\n      dup1\n        /* \"student.sol\":1154:1171  student.studentId */\n      0x00\n      add\n      mload\n        /* \"student.sol\":1173:1180  student */\n      dup2\n        /* \"student.sol\":1173:1185  student.name */\n      0x20\n      add\n      mload\n        /* \"student.sol\":1187:1194  student */\n      dup3\n        /* \"student.sol\":1187:1198  student.age */\n      0x40\n      add\n      mload\n        /* \"student.sol\":1146:1199  return (student.studentId, student.name, student.age) */\n      swap4\n      pop\n      swap4\n      pop\n      swap4\n      pop\n      pop\n        /* \"student.sol\":925:1207  function getStudentByIndex(uint256 _index) public view returns (uint256, string memory, uint256) {... */\n      swap2\n      swap4\n      swap1\n      swap3\n      pop\n      jump\t// out\n        /* \"student.sol\":1255:1530  function updateStudent(uint256 _index, string memory _newName, uint256 _newAge) public {... */\n    tag_29:\n        /* \"student.sol\":1370:1378  students */\n      0x00\n        /* \"student.sol\":1370:1385  students.length */\n      dup1\n      sload\n      swap1\n      pop\n        /* \"student.sol\":1361:1367  _index */\n      dup4\n        /* \"student.sol\":1361:1385  _index < students.length */\n      lt\n        /* \"student.sol\":1353:1403  require(_index < students.length, \"Invalid index\") */\n      tag_50\n      jumpi\n      mload(0x40)\n      0x08c379a000000000000000000000000000000000000000000000000000000000\n      dup2\n      mstore\n      0x04\n      add\n      tag_51\n      swap1\n      tag_38\n      jump\t// in\n    tag_51:\n      mload(0x40)\n      dup1\n      swap2\n      sub\n      swap1\n      revert\n    tag_50:\n        /* \"student.sol\":1414:1437  Student storage student */\n      0x00\n        /* \"student.sol\":1440:1448  students */\n      dup1\n        /* \"student.sol\":1449:1455  _index */\n      dup5\n        /* \"student.sol\":1440:1456  students[_index] */\n      dup2\n      sload\n      dup2\n      lt\n      tag_52\n      jumpi\n      tag_53\n      tag_41\n      jump\t// in\n    tag_53:\n    tag_52:\n      swap1\n      0x00\n      mstore\n      keccak256(0x00, 0x20)\n      swap1\n      0x03\n      mul\n      add\n        /* \"student.sol\":1414:1456  Student storage student = students[_index] */\n      swap1\n      pop\n        /* \"student.sol\":1482:1490  _newName */\n      dup3\n        /* \"student.sol\":1467:1474  student */\n      dup2\n        /* \"student.sol\":1467:1479  student.name */\n      0x01\n      add\n        /* \"student.sol\":1467:1490  student.name = _newName */\n      swap1\n      dup2\n      tag_55\n      swap2\n      swap1\n      tag_34\n      jump\t// in\n    tag_55:\n      pop\n        /* \"student.sol\":1515:1522  _newAge */\n      dup2\n        /* \"student.sol\":1501:1508  student */\n      dup2\n        /* \"student.sol\":1501:1512  student.age */\n      0x02\n      add\n        /* \"student.sol\":1501:1522  student.age = _newAge */\n      dup2\n      swap1\n      sstore\n      pop\n        /* \"student.sol\":1342:1530  {... */\n      pop\n        /* \"student.sol\":1255:1530  function updateStudent(uint256 _index, string memory _newName, uint256 _newAge) public {... */\n      pop\n      pop\n      pop\n      jump\t// out\n        /* \"#utility.yul\":7:84   */\n    tag_56:\n        /* \"#utility.yul\":44:51   */\n      0x00\n        /* \"#utility.yul\":73:78   */\n      dup2\n        /* \"#utility.yul\":62:78   */\n      swap1\n      pop\n        /* \"#utility.yul\":7:84   */\n      swap2\n      swap1\n      pop\n      jump\t// out\n        /* \"#utility.yul\":90:208   */\n    tag_57:\n        /* \"#utility.yul\":177:201   */\n      tag_98\n        /* \"#utility.yul\":195:200   */\n      dup2\n        /* \"#utility.yul\":177:201   */\n      tag_56\n      jump\t// in\n    tag_98:\n        /* \"#utility.yul\":172:175   */\n      dup3\n        /* \"#utility.yul\":165:202   */\n      mstore\n        /* \"#utility.yul\":90:208   */\n      pop\n      pop\n      jump\t// out\n        /* \"#utility.yul\":214:436   */\n    tag_13:\n        /* \"#utility.yul\":307:311   */\n      0x00\n        /* \"#utility.yul\":345:347   */\n      0x20\n        /* \"#utility.yul\":334:343   */\n      dup3\n        /* \"#utility.yul\":330:348   */\n      add\n        /* \"#utility.yul\":322:348   */\n      swap1\n      pop\n        /* \"#utility.yul\":358:429   */\n      tag_100\n        /* \"#utility.yul\":426:427   */\n      0x00\n        /* \"#utility.yul\":415:424   */\n      dup4\n        /* \"#utility.yul\":411:428   */\n      add\n        /* \"#utility.yul\":402:408   */\n      dup5\n        /* \"#utility.yul\":358:429   */\n      tag_57\n      jump\t// in\n    tag_100:\n        /* \"#utility.yul\":214:436   */\n      swap3\n      swap2\n      pop\n      pop\n      jump\t// out\n        /* \"#utility.yul\":442:517   */\n    tag_58:\n        /* \"#utility.yul\":475:481   */\n      0x00\n        /* \"#utility.yul\":508:510   */\n      0x40\n        /* \"#utility.yul\":502:511   */\n      mload\n        /* \"#utility.yul\":492:511   */\n      swap1\n      pop\n        /* \"#utility.yul\":442:517   */\n      swap1\n      jump\t// out\n        /* \"#utility.yul\":523:640   */\n    tag_59:\n        /* \"#utility.yul\":632:633   */\n      0x00\n        /* \"#utility.yul\":629:630   */\n      dup1\n        /* \"#utility.yul\":622:634   */\n      revert\n        /* \"#utility.yul\":646:763   */\n    tag_60:\n        /* \"#utility.yul\":755:756   */\n      0x00\n        /* \"#utility.yul\":752:753   */\n      dup1\n        /* \"#utility.yul\":745:757   */\n      revert\n        /* \"#utility.yul\":769:891   */\n    tag_61:\n        /* \"#utility.yul\":842:866   */\n      tag_105\n        /* \"#utility.yul\":860:865   */\n      dup2\n        /* \"#utility.yul\":842:866   */\n      tag_56\n      jump\t// in\n    tag_105:\n        /* \"#utility.yul\":835:840   */\n      dup2\n        /* \"#utility.yul\":832:867   */\n      eq\n        /* \"#utility.yul\":822:885   */\n      tag_106\n      jumpi\n        /* \"#utility.yul\":881:882   */\n      0x00\n        /* \"#utility.yul\":878:879   */\n      dup1\n        /* \"#utility.yul\":871:883   */\n      revert\n        /* \"#utility.yul\":822:885   */\n    tag_106:\n        /* \"#utility.yul\":769:891   */\n      pop\n      jump\t// out\n        /* \"#utility.yul\":897:1036   */\n    tag_62:\n        /* \"#utility.yul\":943:948   */\n      0x00\n        /* \"#utility.yul\":981:987   */\n      dup2\n        /* \"#utility.yul\":968:988   */\n      calldataload\n        /* \"#utility.yul\":959:988   */\n      swap1\n      pop\n        /* \"#utility.yul\":997:1030   */\n      tag_108\n        /* \"#utility.yul\":1024:1029   */\n      dup2\n        /* \"#utility.yul\":997:1030   */\n      tag_61\n      jump\t// in\n    tag_108:\n        /* \"#utility.yul\":897:1036   */\n      swap3\n      swap2\n      pop\n      pop\n      jump\t// out\n        /* \"#utility.yul\":1042:1159   */\n    tag_63:\n        /* \"#utility.yul\":1151:1152   */\n      0x00\n        /* \"#utility.yul\":1148:1149   */\n      dup1\n        /* \"#utility.yul\":1141:1153   */\n      revert\n        /* \"#utility.yul\":1165:1282   */\n    tag_64:\n        /* \"#utility.yul\":1274:1275   */\n      0x00\n        /* \"#utility.yul\":1271:1272   */\n      dup1\n        /* \"#utility.yul\":1264:1276   */\n      revert\n        /* \"#utility.yul\":1288:1390   */\n    tag_65:\n        /* \"#utility.yul\":1329:1335   */\n      0x00\n        /* \"#utility.yul\":1380:1382   */\n      0x1f\n        /* \"#utility.yul\":1376:1383   */\n      not\n        /* \"#utility.yul\":1371:1373   */\n      0x1f\n        /* \"#utility.yul\":1364:1369   */\n      dup4\n        /* \"#utility.yul\":1360:1374   */\n      add\n        /* \"#utility.yul\":1356:1384   */\n      and\n        /* \"#utility.yul\":1346:1384   */\n      swap1\n      pop\n        /* \"#utility.yul\":1288:1390   */\n      swap2\n      swap1\n      pop\n      jump\t// out\n        /* \"#utility.yul\":1396:1576   */\n    tag_66:\n        /* \"#utility.yul\":1444:1521   */\n      0x4e487b7100000000000000000000000000000000000000000000000000000000\n        /* \"#utility.yul\":1441:1442   */\n      0x00\n        /* \"#utility.yul\":1434:1522   */\n      mstore\n        /* \"#utility.yul\":1541:1545   */\n      0x41\n        /* \"#utility.yul\":1538:1539   */\n      0x04\n        /* \"#utility.yul\":1531:1546   */\n      mstore\n        /* \"#utility.yul\":1565:1569   */\n      0x24\n        /* \"#utility.yul\":1562:1563   */\n      0x00\n        /* \"#utility.yul\":1555:1570   */\n      revert\n        /* \"#utility.yul\":1582:1863   */\n    tag_67:\n        /* \"#utility.yul\":1665:1692   */\n      tag_114\n        /* \"#utility.yul\":1687:1691   */\n      dup3\n        /* \"#utility.yul\":1665:1692   */\n      tag_65\n      jump\t// in\n    tag_114:\n        /* \"#utility.yul\":1657:1663   */\n      dup2\n        /* \"#utility.yul\":1653:1693   */\n      add\n        /* \"#utility.yul\":1795:1801   */\n      dup2\n        /* \"#utility.yul\":1783:1793   */\n      dup2\n        /* \"#utility.yul\":1780:1802   */\n      lt\n        /* \"#utility.yul\":1759:1777   */\n      0xffffffffffffffff\n        /* \"#utility.yul\":1747:1757   */\n      dup3\n        /* \"#utility.yul\":1744:1778   */\n      gt\n        /* \"#utility.yul\":1741:1803   */\n      or\n        /* \"#utility.yul\":1738:1826   */\n      iszero\n      tag_115\n      jumpi\n        /* \"#utility.yul\":1806:1824   */\n      tag_116\n      tag_66\n      jump\t// in\n    tag_116:\n        /* \"#utility.yul\":1738:1826   */\n    tag_115:\n        /* \"#utility.yul\":1846:1856   */\n      dup1\n        /* \"#utility.yul\":1842:1844   */\n      0x40\n        /* \"#utility.yul\":1835:1857   */\n      mstore\n        /* \"#utility.yul\":1625:1863   */\n      pop\n        /* \"#utility.yul\":1582:1863   */\n      pop\n      pop\n      jump\t// out\n        /* \"#utility.yul\":1869:1998   */\n    tag_68:\n        /* \"#utility.yul\":1903:1909   */\n      0x00\n        /* \"#utility.yul\":1930:1950   */\n      tag_118\n      tag_58\n      jump\t// in\n    tag_118:\n        /* \"#utility.yul\":1920:1950   */\n      swap1\n      pop\n        /* \"#utility.yul\":1959:1992   */\n      tag_119\n        /* \"#utility.yul\":1987:1991   */\n      dup3\n        /* \"#utility.yul\":1979:1985   */\n      dup3\n        /* \"#utility.yul\":1959:1992   */\n      tag_67\n      jump\t// in\n    tag_119:\n        /* \"#utility.yul\":1869:1998   */\n      swap2\n      swap1\n      pop\n      jump\t// out\n        /* \"#utility.yul\":2004:2312   */\n    tag_69:\n        /* \"#utility.yul\":2066:2070   */\n      0x00\n        /* \"#utility.yul\":2156:2174   */\n      0xffffffffffffffff\n        /* \"#utility.yul\":2148:2154   */\n      dup3\n        /* \"#utility.yul\":2145:2175   */\n      gt\n        /* \"#utility.yul\":2142:2198   */\n      iszero\n      tag_121\n      jumpi\n        /* \"#utility.yul\":2178:2196   */\n      tag_122\n      tag_66\n      jump\t// in\n    tag_122:\n        /* \"#utility.yul\":2142:2198   */\n    tag_121:\n        /* \"#utility.yul\":2216:2245   */\n      tag_123\n        /* \"#utility.yul\":2238:2244   */\n      dup3\n        /* \"#utility.yul\":2216:2245   */\n      tag_65\n      jump\t// in\n    tag_123:\n        /* \"#utility.yul\":2208:2245   */\n      swap1\n      pop\n        /* \"#utility.yul\":2300:2304   */\n      0x20\n        /* \"#utility.yul\":2294:2298   */\n      dup2\n        /* \"#utility.yul\":2290:2305   */\n      add\n        /* \"#utility.yul\":2282:2305   */\n      swap1\n      pop\n        /* \"#utility.yul\":2004:2312   */\n      swap2\n      swap1\n      pop\n      jump\t// out\n        /* \"#utility.yul\":2318:2466   */\n    tag_70:\n        /* \"#utility.yul\":2416:2422   */\n      dup3\n        /* \"#utility.yul\":2411:2414   */\n      dup2\n        /* \"#utility.yul\":2406:2409   */\n      dup4\n        /* \"#utility.yul\":2393:2423   */\n      calldatacopy\n        /* \"#utility.yul\":2457:2458   */\n      0x00\n        /* \"#utility.yul\":2448:2454   */\n      dup4\n        /* \"#utility.yul\":2443:2446   */\n      dup4\n        /* \"#utility.yul\":2439:2455   */\n      add\n        /* \"#utility.yul\":2432:2459   */\n      mstore\n        /* \"#utility.yul\":2318:2466   */\n      pop\n      pop\n      pop\n      jump\t// out\n        /* \"#utility.yul\":2472:2897   */\n    tag_71:\n        /* \"#utility.yul\":2550:2555   */\n      0x00\n        /* \"#utility.yul\":2575:2641   */\n      tag_126\n        /* \"#utility.yul\":2591:2640   */\n      tag_127\n        /* \"#utility.yul\":2633:2639   */\n      dup5\n        /* \"#utility.yul\":2591:2640   */\n      tag_69\n      jump\t// in\n    tag_127:\n        /* \"#utility.yul\":2575:2641   */\n      tag_68\n      jump\t// in\n    tag_126:\n        /* \"#utility.yul\":2566:2641   */\n      swap1\n      pop\n        /* \"#utility.yul\":2664:2670   */\n      dup3\n        /* \"#utility.yul\":2657:2662   */\n      dup2\n        /* \"#utility.yul\":2650:2671   */\n      mstore\n        /* \"#utility.yul\":2702:2706   */\n      0x20\n        /* \"#utility.yul\":2695:2700   */\n      dup2\n        /* \"#utility.yul\":2691:2707   */\n      add\n        /* \"#utility.yul\":2740:2743   */\n      dup5\n        /* \"#utility.yul\":2731:2737   */\n      dup5\n        /* \"#utility.yul\":2726:2729   */\n      dup5\n        /* \"#utility.yul\":2722:2738   */\n      add\n        /* \"#utility.yul\":2719:2744   */\n      gt\n        /* \"#utility.yul\":2716:2828   */\n      iszero\n      tag_128\n      jumpi\n        /* \"#utility.yul\":2747:2826   */\n      tag_129\n      tag_64\n      jump\t// in\n    tag_129:\n        /* \"#utility.yul\":2716:2828   */\n    tag_128:\n        /* \"#utility.yul\":2837:2891   */\n      tag_130\n        /* \"#utility.yul\":2884:2890   */\n      dup5\n        /* \"#utility.yul\":2879:2882   */\n      dup3\n        /* \"#utility.yul\":2874:2877   */\n      dup6\n        /* \"#utility.yul\":2837:2891   */\n      tag_70\n      jump\t// in\n    tag_130:\n        /* \"#utility.yul\":2556:2897   */\n      pop\n        /* \"#utility.yul\":2472:2897   */\n      swap4\n      swap3\n      pop\n      pop\n      pop\n      jump\t// out\n        /* \"#utility.yul\":2917:3257   */\n    tag_72:\n        /* \"#utility.yul\":2973:2978   */\n      0x00\n        /* \"#utility.yul\":3022:3025   */\n      dup3\n        /* \"#utility.yul\":3015:3019   */\n      0x1f\n        /* \"#utility.yul\":3007:3013   */\n      dup4\n        /* \"#utility.yul\":3003:3020   */\n      add\n        /* \"#utility.yul\":2999:3026   */\n      slt\n        /* \"#utility.yul\":2989:3111   */\n      tag_132\n      jumpi\n        /* \"#utility.yul\":3030:3109   */\n      tag_133\n      tag_63\n      jump\t// in\n    tag_133:\n        /* \"#utility.yul\":2989:3111   */\n    tag_132:\n        /* \"#utility.yul\":3147:3153   */\n      dup2\n        /* \"#utility.yul\":3134:3154   */\n      calldataload\n        /* \"#utility.yul\":3172:3251   */\n      tag_134\n        /* \"#utility.yul\":3247:3250   */\n      dup5\n        /* \"#utility.yul\":3239:3245   */\n      dup3\n        /* \"#utility.yul\":3232:3236   */\n      0x20\n        /* \"#utility.yul\":3224:3230   */\n      dup7\n        /* \"#utility.yul\":3220:3237   */\n      add\n        /* \"#utility.yul\":3172:3251   */\n      tag_71\n      jump\t// in\n    tag_134:\n        /* \"#utility.yul\":3163:3251   */\n      swap2\n      pop\n        /* \"#utility.yul\":2979:3257   */\n      pop\n        /* \"#utility.yul\":2917:3257   */\n      swap3\n      swap2\n      pop\n      pop\n      jump\t// out\n        /* \"#utility.yul\":3263:4062   */\n    tag_17:\n        /* \"#utility.yul\":3350:3356   */\n      0x00\n        /* \"#utility.yul\":3358:3364   */\n      dup1\n        /* \"#utility.yul\":3366:3372   */\n      0x00\n        /* \"#utility.yul\":3415:3417   */\n      0x60\n        /* \"#utility.yul\":3403:3412   */\n      dup5\n        /* \"#utility.yul\":3394:3401   */\n      dup7\n        /* \"#utility.yul\":3390:3413   */\n      sub\n        /* \"#utility.yul\":3386:3418   */\n      slt\n        /* \"#utility.yul\":3383:3502   */\n      iszero\n      tag_136\n      jumpi\n        /* \"#utility.yul\":3421:3500   */\n      tag_137\n      tag_59\n      jump\t// in\n    tag_137:\n        /* \"#utility.yul\":3383:3502   */\n    tag_136:\n        /* \"#utility.yul\":3541:3542   */\n      0x00\n        /* \"#utility.yul\":3566:3619   */\n      tag_138\n        /* \"#utility.yul\":3611:3618   */\n      dup7\n        /* \"#utility.yul\":3602:3608   */\n      dup3\n        /* \"#utility.yul\":3591:3600   */\n      dup8\n        /* \"#utility.yul\":3587:3609   */\n      add\n        /* \"#utility.yul\":3566:3619   */\n      tag_62\n      jump\t// in\n    tag_138:\n        /* \"#utility.yul\":3556:3619   */\n      swap4\n      pop\n        /* \"#utility.yul\":3512:3629   */\n      pop\n        /* \"#utility.yul\":3696:3698   */\n      0x20\n        /* \"#utility.yul\":3685:3694   */\n      dup5\n        /* \"#utility.yul\":3681:3699   */\n      add\n        /* \"#utility.yul\":3668:3700   */\n      calldataload\n        /* \"#utility.yul\":3727:3745   */\n      0xffffffffffffffff\n        /* \"#utility.yul\":3719:3725   */\n      dup2\n        /* \"#utility.yul\":3716:3746   */\n      gt\n        /* \"#utility.yul\":3713:3830   */\n      iszero\n      tag_139\n      jumpi\n        /* \"#utility.yul\":3749:3828   */\n      tag_140\n      tag_60\n      jump\t// in\n    tag_140:\n        /* \"#utility.yul\":3713:3830   */\n    tag_139:\n        /* \"#utility.yul\":3854:3917   */\n      tag_141\n        /* \"#utility.yul\":3909:3916   */\n      dup7\n        /* \"#utility.yul\":3900:3906   */\n      dup3\n        /* \"#utility.yul\":3889:3898   */\n      dup8\n        /* \"#utility.yul\":3885:3907   */\n      add\n        /* \"#utility.yul\":3854:3917   */\n      tag_72\n      jump\t// in\n    tag_141:\n        /* \"#utility.yul\":3844:3917   */\n      swap3\n      pop\n        /* \"#utility.yul\":3639:3927   */\n      pop\n        /* \"#utility.yul\":3966:3968   */\n      0x40\n        /* \"#utility.yul\":3992:4045   */\n      tag_142\n        /* \"#utility.yul\":4037:4044   */\n      dup7\n        /* \"#utility.yul\":4028:4034   */\n      dup3\n        /* \"#utility.yul\":4017:4026   */\n      dup8\n        /* \"#utility.yul\":4013:4035   */\n      add\n        /* \"#utility.yul\":3992:4045   */\n      tag_62\n      jump\t// in\n    tag_142:\n        /* \"#utility.yul\":3982:4045   */\n      swap2\n      pop\n        /* \"#utility.yul\":3937:4055   */\n      pop\n        /* \"#utility.yul\":3263:4062   */\n      swap3\n      pop\n      swap3\n      pop\n      swap3\n      jump\t// out\n        /* \"#utility.yul\":4068:4397   */\n    tag_22:\n        /* \"#utility.yul\":4127:4133   */\n      0x00\n        /* \"#utility.yul\":4176:4178   */\n      0x20\n        /* \"#utility.yul\":4164:4173   */\n      dup3\n        /* \"#utility.yul\":4155:4162   */\n      dup5\n        /* \"#utility.yul\":4151:4174   */\n      sub\n        /* \"#utility.yul\":4147:4179   */\n      slt\n        /* \"#utility.yul\":4144:4263   */\n      iszero\n      tag_144\n      jumpi\n        /* \"#utility.yul\":4182:4261   */\n      tag_145\n      tag_59\n      jump\t// in\n    tag_145:\n        /* \"#utility.yul\":4144:4263   */\n    tag_144:\n        /* \"#utility.yul\":4302:4303   */\n      0x00\n        /* \"#utility.yul\":4327:4380   */\n      tag_146\n        /* \"#utility.yul\":4372:4379   */\n      dup5\n        /* \"#utility.yul\":4363:4369   */\n      dup3\n        /* \"#utility.yul\":4352:4361   */\n      dup6\n        /* \"#utility.yul\":4348:4370   */\n      add\n        /* \"#utility.yul\":4327:4380   */\n      tag_62\n      jump\t// in\n    tag_146:\n        /* \"#utility.yul\":4317:4380   */\n      swap2\n      pop\n        /* \"#utility.yul\":4273:4390   */\n      pop\n        /* \"#utility.yul\":4068:4397   */\n      swap3\n      swap2\n      pop\n      pop\n      jump\t// out\n        /* \"#utility.yul\":4403:4502   */\n    tag_73:\n        /* \"#utility.yul\":4455:4461   */\n      0x00\n        /* \"#utility.yul\":4489:4494   */\n      dup2\n        /* \"#utility.yul\":4483:4495   */\n      mload\n        /* \"#utility.yul\":4473:4495   */\n      swap1\n      pop\n        /* \"#utility.yul\":4403:4502   */\n      swap2\n      swap1\n      pop\n      jump\t// out\n        /* \"#utility.yul\":4508:4677   */\n    tag_74:\n        /* \"#utility.yul\":4592:4603   */\n      0x00\n        /* \"#utility.yul\":4626:4632   */\n      dup3\n        /* \"#utility.yul\":4621:4624   */\n      dup3\n        /* \"#utility.yul\":4614:4633   */\n      mstore\n        /* \"#utility.yul\":4666:4670   */\n      0x20\n        /* \"#utility.yul\":4661:4664   */\n      dup3\n        /* \"#utility.yul\":4657:4671   */\n      add\n        /* \"#utility.yul\":4642:4671   */\n      swap1\n      pop\n        /* \"#utility.yul\":4508:4677   */\n      swap3\n      swap2\n      pop\n      pop\n      jump\t// out\n        /* \"#utility.yul\":4683:4822   */\n    tag_75:\n        /* \"#utility.yul\":4772:4778   */\n      dup3\n        /* \"#utility.yul\":4767:4770   */\n      dup2\n        /* \"#utility.yul\":4762:4765   */\n      dup4\n        /* \"#utility.yul\":4756:4779   */\n      mcopy\n        /* \"#utility.yul\":4813:4814   */\n      0x00\n        /* \"#utility.yul\":4804:4810   */\n      dup4\n        /* \"#utility.yul\":4799:4802   */\n      dup4\n        /* \"#utility.yul\":4795:4811   */\n      add\n        /* \"#utility.yul\":4788:4815   */\n      mstore\n        /* \"#utility.yul\":4683:4822   */\n      pop\n      pop\n      pop\n      jump\t// out\n        /* \"#utility.yul\":4828:5205   */\n    tag_76:\n        /* \"#utility.yul\":4916:4919   */\n      0x00\n        /* \"#utility.yul\":4944:4983   */\n      tag_151\n        /* \"#utility.yul\":4977:4982   */\n      dup3\n        /* \"#utility.yul\":4944:4983   */\n      tag_73\n      jump\t// in\n    tag_151:\n        /* \"#utility.yul\":4999:5070   */\n      tag_152\n        /* \"#utility.yul\":5063:5069   */\n      dup2\n        /* \"#utility.yul\":5058:5061   */\n      dup6\n        /* \"#utility.yul\":4999:5070   */\n      tag_74\n      jump\t// in\n    tag_152:\n        /* \"#utility.yul\":4992:5070   */\n      swap4\n      pop\n        /* \"#utility.yul\":5079:5144   */\n      tag_153\n        /* \"#utility.yul\":5137:5143   */\n      dup2\n        /* \"#utility.yul\":5132:5135   */\n      dup6\n        /* \"#utility.yul\":5125:5129   */\n      0x20\n        /* \"#utility.yul\":5118:5123   */\n      dup7\n        /* \"#utility.yul\":5114:5130   */\n      add\n        /* \"#utility.yul\":5079:5144   */\n      tag_75\n      jump\t// in\n    tag_153:\n        /* \"#utility.yul\":5169:5198   */\n      tag_154\n        /* \"#utility.yul\":5191:5197   */\n      dup2\n        /* \"#utility.yul\":5169:5198   */\n      tag_65\n      jump\t// in\n    tag_154:\n        /* \"#utility.yul\":5164:5167   */\n      dup5\n        /* \"#utility.yul\":5160:5199   */\n      add\n        /* \"#utility.yul\":5153:5199   */\n      swap2\n      pop\n        /* \"#utility.yul\":4920:5205   */\n      pop\n        /* \"#utility.yul\":4828:5205   */\n      swap3\n      swap2\n      pop\n      pop\n      jump\t// out\n        /* \"#utility.yul\":5211:5744   */\n    tag_25:\n        /* \"#utility.yul\":5380:5384   */\n      0x00\n        /* \"#utility.yul\":5418:5420   */\n      0x60\n        /* \"#utility.yul\":5407:5416   */\n      dup3\n        /* \"#utility.yul\":5403:5421   */\n      add\n        /* \"#utility.yul\":5395:5421   */\n      swap1\n      pop\n        /* \"#utility.yul\":5431:5502   */\n      tag_156\n        /* \"#utility.yul\":5499:5500   */\n      0x00\n        /* \"#utility.yul\":5488:5497   */\n      dup4\n        /* \"#utility.yul\":5484:5501   */\n      add\n        /* \"#utility.yul\":5475:5481   */\n      dup7\n        /* \"#utility.yul\":5431:5502   */\n      tag_57\n      jump\t// in\n    tag_156:\n        /* \"#utility.yul\":5549:5558   */\n      dup2\n        /* \"#utility.yul\":5543:5547   */\n      dup2\n        /* \"#utility.yul\":5539:5559   */\n      sub\n        /* \"#utility.yul\":5534:5536   */\n      0x20\n        /* \"#utility.yul\":5523:5532   */\n      dup4\n        /* \"#utility.yul\":5519:5537   */\n      add\n        /* \"#utility.yul\":5512:5560   */\n      mstore\n        /* \"#utility.yul\":5577:5655   */\n      tag_157\n        /* \"#utility.yul\":5650:5654   */\n      dup2\n        /* \"#utility.yul\":5641:5647   */\n      dup6\n        /* \"#utility.yul\":5577:5655   */\n      tag_76\n      jump\t// in\n    tag_157:\n        /* \"#utility.yul\":5569:5655   */\n      swap1\n      pop\n        /* \"#utility.yul\":5665:5737   */\n      tag_158\n        /* \"#utility.yul\":5733:5735   */\n      0x40\n        /* \"#utility.yul\":5722:5731   */\n      dup4\n        /* \"#utility.yul\":5718:5736   */\n      add\n        /* \"#utility.yul\":5709:5715   */\n      dup5\n        /* \"#utility.yul\":5665:5737   */\n      tag_57\n      jump\t// in\n    tag_158:\n        /* \"#utility.yul\":5211:5744   */\n      swap5\n      swap4\n      pop\n      pop\n      pop\n      pop\n      jump\t// out\n        /* \"#utility.yul\":5750:5930   */\n    tag_77:\n        /* \"#utility.yul\":5798:5875   */\n      0x4e487b7100000000000000000000000000000000000000000000000000000000\n        /* \"#utility.yul\":5795:5796   */\n      0x00\n        /* \"#utility.yul\":5788:5876   */\n      mstore\n        /* \"#utility.yul\":5895:5899   */\n      0x22\n        /* \"#utility.yul\":5892:5893   */\n      0x04\n        /* \"#utility.yul\":5885:5900   */\n      mstore\n        /* \"#utility.yul\":5919:5923   */\n      0x24\n        /* \"#utility.yul\":5916:5917   */\n      0x00\n        /* \"#utility.yul\":5909:5924   */\n      revert\n        /* \"#utility.yul\":5936:6256   */\n    tag_44:\n        /* \"#utility.yul\":5980:5986   */\n      0x00\n        /* \"#utility.yul\":6017:6018   */\n      0x02\n        /* \"#utility.yul\":6011:6015   */\n      dup3\n        /* \"#utility.yul\":6007:6019   */\n      div\n        /* \"#utility.yul\":5997:6019   */\n      swap1\n      pop\n        /* \"#utility.yul\":6064:6065   */\n      0x01\n        /* \"#utility.yul\":6058:6062   */\n      dup3\n        /* \"#utility.yul\":6054:6066   */\n      and\n        /* \"#utility.yul\":6085:6103   */\n      dup1\n        /* \"#utility.yul\":6075:6156   */\n      tag_161\n      jumpi\n        /* \"#utility.yul\":6141:6145   */\n      0x7f\n        /* \"#utility.yul\":6133:6139   */\n      dup3\n        /* \"#utility.yul\":6129:6146   */\n      and\n        /* \"#utility.yul\":6119:6146   */\n      swap2\n      pop\n        /* \"#utility.yul\":6075:6156   */\n    tag_161:\n        /* \"#utility.yul\":6203:6205   */\n      0x20\n        /* \"#utility.yul\":6195:6201   */\n      dup3\n        /* \"#utility.yul\":6192:6206   */\n      lt\n        /* \"#utility.yul\":6172:6190   */\n      dup2\n        /* \"#utility.yul\":6169:6207   */\n      sub\n        /* \"#utility.yul\":6166:6250   */\n      tag_162\n      jumpi\n        /* \"#utility.yul\":6222:6240   */\n      tag_163\n      tag_77\n      jump\t// in\n    tag_163:\n        /* \"#utility.yul\":6166:6250   */\n    tag_162:\n        /* \"#utility.yul\":5987:6256   */\n      pop\n        /* \"#utility.yul\":5936:6256   */\n      swap2\n      swap1\n      pop\n      jump\t// out\n        /* \"#utility.yul\":6262:6403   */\n    tag_78:\n        /* \"#utility.yul\":6311:6315   */\n      0x00\n        /* \"#utility.yul\":6334:6337   */\n      dup2\n        /* \"#utility.yul\":6326:6337   */\n      swap1\n      pop\n        /* \"#utility.yul\":6357:6360   */\n      dup2\n        /* \"#utility.yul\":6354:6355   */\n      0x00\n        /* \"#utility.yul\":6347:6361   */\n      mstore\n        /* \"#utility.yul\":6391:6395   */\n      0x20\n        /* \"#utility.yul\":6388:6389   */\n      0x00\n        /* \"#utility.yul\":6378:6396   */\n      keccak256\n        /* \"#utility.yul\":6370:6396   */\n      swap1\n      pop\n        /* \"#utility.yul\":6262:6403   */\n      swap2\n      swap1\n      pop\n      jump\t// out\n        /* \"#utility.yul\":6409:6502   */\n    tag_79:\n        /* \"#utility.yul\":6446:6452   */\n      0x00\n        /* \"#utility.yul\":6493:6495   */\n      0x20\n        /* \"#utility.yul\":6488:6490   */\n      0x1f\n        /* \"#utility.yul\":6481:6486   */\n      dup4\n        /* \"#utility.yul\":6477:6491   */\n      add\n        /* \"#utility.yul\":6473:6496   */\n      div\n        /* \"#utility.yul\":6463:6496   */\n      swap1\n      pop\n        /* \"#utility.yul\":6409:6502   */\n      swap2\n      swap1\n      pop\n      jump\t// out\n        /* \"#utility.yul\":6508:6615   */\n    tag_80:\n        /* \"#utility.yul\":6552:6560   */\n      0x00\n        /* \"#utility.yul\":6602:6607   */\n      dup3\n        /* \"#utility.yul\":6596:6600   */\n      dup3\n        /* \"#utility.yul\":6592:6608   */\n      shl\n        /* \"#utility.yul\":6571:6608   */\n      swap1\n      pop\n        /* \"#utility.yul\":6508:6615   */\n      swap3\n      swap2\n      pop\n      pop\n      jump\t// out\n        /* \"#utility.yul\":6621:7014   */\n    tag_81:\n        /* \"#utility.yul\":6690:6696   */\n      0x00\n        /* \"#utility.yul\":6740:6741   */\n      0x08\n        /* \"#utility.yul\":6728:6738   */\n      dup4\n        /* \"#utility.yul\":6724:6742   */\n      mul\n        /* \"#utility.yul\":6763:6860   */\n      tag_168\n        /* \"#utility.yul\":6793:6859   */\n      0xffffffffffffffffffffffffffffffffffffffffffffffffffffffffffffffff\n        /* \"#utility.yul\":6782:6791   */\n      dup3\n        /* \"#utility.yul\":6763:6860   */\n      tag_80\n      jump\t// in\n    tag_168:\n        /* \"#utility.yul\":6881:6920   */\n      tag_169\n        /* \"#utility.yul\":6911:6919   */\n      dup7\n        /* \"#utility.yul\":6900:6909   */\n      dup4\n        /* \"#utility.yul\":6881:6920   */\n      tag_80\n      jump\t// in\n    tag_169:\n        /* \"#utility.yul\":6869:6920   */\n      swap6\n      pop\n        /* \"#utility.yul\":6953:6957   */\n      dup1\n        /* \"#utility.yul\":6949:6958   */\n      not\n        /* \"#utility.yul\":6942:6947   */\n      dup5\n        /* \"#utility.yul\":6938:6959   */\n      and\n        /* \"#utility.yul\":6929:6959   */\n      swap4\n      pop\n        /* \"#utility.yul\":7002:7006   */\n      dup1\n        /* \"#utility.yul\":6992:7000   */\n      dup7\n        /* \"#utility.yul\":6988:7007   */\n      and\n        /* \"#utility.yul\":6981:6986   */\n      dup5\n        /* \"#utility.yul\":6978:7008   */\n      or\n        /* \"#utility.yul\":6968:7008   */\n      swap3\n      pop\n        /* \"#utility.yul\":6697:7014   */\n      pop\n      pop\n        /* \"#utility.yul\":6621:7014   */\n      swap4\n      swap3\n      pop\n      pop\n      pop\n      jump\t// out\n        /* \"#utility.yul\":7020:7080   */\n    tag_82:\n        /* \"#utility.yul\":7048:7051   */\n      0x00\n        /* \"#utility.yul\":7069:7074   */\n      dup2\n        /* \"#utility.yul\":7062:7074   */\n      swap1\n      pop\n        /* \"#utility.yul\":7020:7080   */\n      swap2\n      swap1\n      pop\n      jump\t// out\n        /* \"#utility.yul\":7086:7228   */\n    tag_83:\n        /* \"#utility.yul\":7136:7145   */\n      0x00\n        /* \"#utility.yul\":7169:7222   */\n      tag_172\n        /* \"#utility.yul\":7187:7221   */\n      tag_173\n        /* \"#utility.yul\":7196:7220   */\n      tag_174\n        /* \"#utility.yul\":7214:7219   */\n      dup5\n        /* \"#utility.yul\":7196:7220   */\n      tag_56\n      jump\t// in\n    tag_174:\n        /* \"#utility.yul\":7187:7221   */\n      tag_82\n      jump\t// in\n    tag_173:\n        /* \"#utility.yul\":7169:7222   */\n      tag_56\n      jump\t// in\n    tag_172:\n        /* \"#utility.yul\":7156:7222   */\n      swap1\n      pop\n        /* \"#utility.yul\":7086:7228   */\n      swap2\n      swap1\n      pop\n      jump\t// out\n        /* \"#utility.yul\":7234:7309   */\n    tag_84:\n        /* \"#utility.yul\":7277:7280   */\n      0x00\n        /* \"#utility.yul\":7298:7303   */\n      dup2\n        /* \"#utility.yul\":7291:7303   */\n      swap1\n      pop\n        /* \"#utility.yul\":7234:7309   */\n      swap2\n      swap1\n      pop\n      jump\t// out\n        /* \"#utility.yul\":7315:7584   */\n    tag_85:\n        /* \"#utility.yul\":7425:7464   */\n      tag_177\n        /* \"#utility.yul\":7456:7463   */\n      dup4\n        /* \"#utility.yul\":7425:7464   */\n      tag_83\n      jump\t// in\n    tag_177:\n        /* \"#utility.yul\":7486:7577   */\n      tag_178\n        /* \"#utility.yul\":7535:7576   */\n      tag_179\n        /* \"#utility.yul\":7559:7575   */\n      dup3\n        /* \"#utility.yul\":7535:7576   */\n      tag_84\n      jump\t// in\n    tag_179:\n        /* \"#utility.yul\":7527:7533   */\n      dup5\n        /* \"#utility.yul\":7520:7524   */\n      dup5\n        /* \"#utility.yul\":7514:7525   */\n      sload\n        /* \"#utility.yul\":7486:7577   */\n      tag_81\n      jump\t// in\n    tag_178:\n        /* \"#utility.yul\":7480:7484   */\n      dup3\n        /* \"#utility.yul\":7473:7578   */\n      sstore\n        /* \"#utility.yul\":7391:7584   */\n      pop\n        /* \"#utility.yul\":7315:7584   */\n      pop\n      pop\n      pop\n      jump\t// out\n        /* \"#utility.yul\":7590:7663   */\n    tag_86:\n        /* \"#utility.yul\":7635:7638   */\n      0x00\n        /* \"#utility.yul\":7590:7663   */\n      swap1\n      jump\t// out\n        /* \"#utility.yul\":7669:7858   */\n    tag_87:\n        /* \"#utility.yul\":7746:7778   */\n      tag_182\n      tag_86\n      jump\t// in\n    tag_182:\n        /* \"#utility.yul\":7787:7852   */\n      tag_183\n        /* \"#utility.yul\":7845:7851   */\n      dup2\n        /* \"#utility.yul\":7837:7843   */\n      dup5\n        /* \"#utility.yul\":7831:7835   */\n      dup5\n        /* \"#utility.yul\":7787:7852   */\n      tag_85\n      jump\t// in\n    tag_183:\n        /* \"#utility.yul\":7722:7858   */\n      pop\n        /* \"#utility.yul\":7669:7858   */\n      pop\n      pop\n      jump\t// out\n        /* \"#utility.yul\":7864:8050   */\n    tag_88:\n        /* \"#utility.yul\":7924:8044   */\n    tag_185:\n        /* \"#utility.yul\":7941:7944   */\n      dup2\n        /* \"#utility.yul\":7934:7939   */\n      dup2\n        /* \"#utility.yul\":7931:7945   */\n      lt\n        /* \"#utility.yul\":7924:8044   */\n      iszero\n      tag_187\n      jumpi\n        /* \"#utility.yul\":7995:8034   */\n      tag_188\n        /* \"#utility.yul\":8032:8033   */\n      0x00\n        /* \"#utility.yul\":8025:8030   */\n      dup3\n        /* \"#utility.yul\":7995:8034   */\n      tag_87\n      jump\t// in\n    tag_188:\n        /* \"#utility.yul\":7968:7969   */\n      0x01\n        /* \"#utility.yul\":7961:7966   */\n      dup2\n        /* \"#utility.yul\":7957:7970   */\n      add\n        /* \"#utility.yul\":7948:7970   */\n      swap1\n      pop\n        /* \"#utility.yul\":7924:8044   */\n      jump(tag_185)\n    tag_187:\n        /* \"#utility.yul\":7864:8050   */\n      pop\n      pop\n      jump\t// out\n        /* \"#utility.yul\":8056:8599   */\n    tag_89:\n        /* \"#utility.yul\":8157:8159   */\n      0x1f\n        /* \"#utility.yul\":8152:8155   */\n      dup3\n        /* \"#utility.yul\":8149:8160   */\n      gt\n        /* \"#utility.yul\":8146:8592   */\n      iszero\n      tag_190\n      jumpi\n        /* \"#utility.yul\":8191:8229   */\n      tag_191\n        /* \"#utility.yul\":8223:8228   */\n      dup2\n        /* \"#utility.yul\":8191:8229   */\n      tag_78\n      jump\t// in\n    tag_191:\n        /* \"#utility.yul\":8275:8304   */\n      tag_192\n        /* \"#utility.yul\":8293:8303   */\n      dup5\n        /* \"#utility.yul\":8275:8304   */\n      tag_79\n      jump\t// in\n    tag_192:\n        /* \"#utility.yul\":8265:8273   */\n      dup2\n        /* \"#utility.yul\":8261:8305   */\n      add\n        /* \"#utility.yul\":8458:8460   */\n      0x20\n        /* \"#utility.yul\":8446:8456   */\n      dup6\n        /* \"#utility.yul\":8443:8461   */\n      lt\n        /* \"#utility.yul\":8440:8489   */\n      iszero\n      tag_193\n      jumpi\n        /* \"#utility.yul\":8479:8487   */\n      dup2\n        /* \"#utility.yul\":8464:8487   */\n      swap1\n      pop\n        /* \"#utility.yul\":8440:8489   */\n    tag_193:\n        /* \"#utility.yul\":8502:8582   */\n      tag_194\n        /* \"#utility.yul\":8558:8580   */\n      tag_195\n        /* \"#utility.yul\":8576:8579   */\n      dup6\n        /* \"#utility.yul\":8558:8580   */\n      tag_79\n      jump\t// in\n    tag_195:\n        /* \"#utility.yul\":8548:8556   */\n      dup4\n        /* \"#utility.yul\":8544:8581   */\n      add\n        /* \"#utility.yul\":8531:8542   */\n      dup3\n        /* \"#utility.yul\":8502:8582   */\n      tag_88\n      jump\t// in\n    tag_194:\n        /* \"#utility.yul\":8161:8592   */\n      pop\n      pop\n        /* \"#utility.yul\":8146:8592   */\n    tag_190:\n        /* \"#utility.yul\":8056:8599   */\n      pop\n      pop\n      pop\n      jump\t// out\n        /* \"#utility.yul\":8605:8722   */\n    tag_90:\n        /* \"#utility.yul\":8659:8667   */\n      0x00\n        /* \"#utility.yul\":8709:8714   */\n      dup3\n        /* \"#utility.yul\":8703:8707   */\n      dup3\n        /* \"#utility.yul\":8699:8715   */\n      shr\n        /* \"#utility.yul\":8678:8715   */\n      swap1\n      pop\n        /* \"#utility.yul\":8605:8722   */\n      swap3\n      swap2\n      pop\n      pop\n      jump\t// out\n        /* \"#utility.yul\":8728:8897   */\n    tag_91:\n        /* \"#utility.yul\":8772:8778   */\n      0x00\n        /* \"#utility.yul\":8805:8856   */\n      tag_198\n        /* \"#utility.yul\":8853:8854   */\n      0x00\n        /* \"#utility.yul\":8849:8855   */\n      not\n        /* \"#utility.yul\":8841:8846   */\n      dup5\n        /* \"#utility.yul\":8838:8839   */\n      0x08\n        /* \"#utility.yul\":8834:8847   */\n      mul\n        /* \"#utility.yul\":8805:8856   */\n      tag_90\n      jump\t// in\n    tag_198:\n        /* \"#utility.yul\":8801:8857   */\n      not\n        /* \"#utility.yul\":8886:8890   */\n      dup1\n        /* \"#utility.yul\":8880:8884   */\n      dup4\n        /* \"#utility.yul\":8876:8891   */\n      and\n        /* \"#utility.yul\":8866:8891   */\n      swap2\n      pop\n        /* \"#utility.yul\":8779:8897   */\n      pop\n        /* \"#utility.yul\":8728:8897   */\n      swap3\n      swap2\n      pop\n      pop\n      jump\t// out\n        /* \"#utility.yul\":8902:9197   */\n    tag_92:\n        /* \"#utility.yul\":8978:8982   */\n      0x00\n        /* \"#utility.yul\":9124:9153   */\n      tag_200\n        /* \"#utility.yul\":9149:9152   */\n      dup4\n        /* \"#utility.yul\":9143:9147   */\n      dup4\n        /* \"#utility.yul\":9124:9153   */\n      tag_91\n      jump\t// in\n    tag_200:\n        /* \"#utility.yul\":9116:9153   */\n      swap2\n      pop\n        /* \"#utility.yul\":9186:9189   */\n      dup3\n        /* \"#utility.yul\":9183:9184   */\n      0x02\n        /* \"#utility.yul\":9179:9190   */\n      mul\n        /* \"#utility.yul\":9173:9177   */\n      dup3\n        /* \"#utility.yul\":9170:9191   */\n      or\n        /* \"#utility.yul\":9162:9191   */\n      swap1\n      pop\n        /* \"#utility.yul\":8902:9197   */\n      swap3\n      swap2\n      pop\n      pop\n      jump\t// out\n        /* \"#utility.yul\":9202:10597   */\n    tag_34:\n        /* \"#utility.yul\":9319:9356   */\n      tag_202\n        /* \"#utility.yul\":9352:9355   */\n      dup3\n        /* \"#utility.yul\":9319:9356   */\n      tag_73\n      jump\t// in\n    tag_202:\n        /* \"#utility.yul\":9421:9439   */\n      0xffffffffffffffff\n        /* \"#utility.yul\":9413:9419   */\n      dup2\n        /* \"#utility.yul\":9410:9440   */\n      gt\n        /* \"#utility.yul\":9407:9463   */\n      iszero\n      tag_203\n      jumpi\n        /* \"#utility.yul\":9443:9461   */\n      tag_204\n      tag_66\n      jump\t// in\n    tag_204:\n        /* \"#utility.yul\":9407:9463   */\n    tag_203:\n        /* \"#utility.yul\":9487:9525   */\n      tag_205\n        /* \"#utility.yul\":9519:9523   */\n      dup3\n        /* \"#utility.yul\":9513:9524   */\n      sload\n        /* \"#utility.yul\":9487:9525   */\n      tag_44\n      jump\t// in\n    tag_205:\n        /* \"#utility.yul\":9572:9639   */\n      tag_206\n        /* \"#utility.yul\":9632:9638   */\n      dup3\n        /* \"#utility.yul\":9624:9630   */\n      dup3\n        /* \"#utility.yul\":9618:9622   */\n      dup6\n        /* \"#utility.yul\":9572:9639   */\n      tag_89\n      jump\t// in\n    tag_206:\n        /* \"#utility.yul\":9666:9667   */\n      0x00\n        /* \"#utility.yul\":9690:9694   */\n      0x20\n        /* \"#utility.yul\":9677:9694   */\n      swap1\n      pop\n        /* \"#utility.yul\":9722:9724   */\n      0x1f\n        /* \"#utility.yul\":9714:9720   */\n      dup4\n        /* \"#utility.yul\":9711:9725   */\n      gt\n        /* \"#utility.yul\":9739:9740   */\n      0x01\n        /* \"#utility.yul\":9734:10352   */\n      dup2\n      eq\n      tag_208\n      jumpi\n        /* \"#utility.yul\":10396:10397   */\n      0x00\n        /* \"#utility.yul\":10413:10419   */\n      dup5\n        /* \"#utility.yul\":10410:10487   */\n      iszero\n      tag_209\n      jumpi\n        /* \"#utility.yul\":10462:10471   */\n      dup3\n        /* \"#utility.yul\":10457:10460   */\n      dup8\n        /* \"#utility.yul\":10453:10472   */\n      add\n        /* \"#utility.yul\":10447:10473   */\n      mload\n        /* \"#utility.yul\":10438:10473   */\n      swap1\n      pop\n        /* \"#utility.yul\":10410:10487   */\n    tag_209:\n        /* \"#utility.yul\":10513:10580   */\n      tag_210\n        /* \"#utility.yul\":10573:10579   */\n      dup6\n        /* \"#utility.yul\":10566:10571   */\n      dup3\n        /* \"#utility.yul\":10513:10580   */\n      tag_92\n      jump\t// in\n    tag_210:\n        /* \"#utility.yul\":10507:10511   */\n      dup7\n        /* \"#utility.yul\":10500:10581   */\n      sstore\n        /* \"#utility.yul\":10369:10591   */\n      pop\n        /* \"#utility.yul\":9704:10591   */\n      jump(tag_207)\n        /* \"#utility.yul\":9734:10352   */\n    tag_208:\n        /* \"#utility.yul\":9786:9790   */\n      0x1f\n        /* \"#utility.yul\":9782:9791   */\n      not\n        /* \"#utility.yul\":9774:9780   */\n      dup5\n        /* \"#utility.yul\":9770:9792   */\n      and\n        /* \"#utility.yul\":9820:9857   */\n      tag_211\n        /* \"#utility.yul\":9852:9856   */\n      dup7\n        /* \"#utility.yul\":9820:9857   */\n      tag_78\n      jump\t// in\n    tag_211:\n        /* \"#utility.yul\":9879:9880   */\n      0x00\n        /* \"#utility.yul\":9893:10101   */\n    tag_212:\n        /* \"#utility.yul\":9907:9914   */\n      dup3\n        /* \"#utility.yul\":9904:9905   */\n      dup2\n        /* \"#utility.yul\":9901:9915   */\n      lt\n        /* \"#utility.yul\":9893:10101   */\n      iszero\n      tag_214\n      jumpi\n        /* \"#utility.yul\":9986:9995   */\n      dup5\n        /* \"#utility.yul\":9981:9984   */\n      dup10\n        /* \"#utility.yul\":9977:9996   */\n      add\n        /* \"#utility.yul\":9971:9997   */\n      mload\n        /* \"#utility.yul\":9963:9969   */\n      dup3\n        /* \"#utility.yul\":9956:9998   */\n      sstore\n        /* \"#utility.yul\":10037:10038   */\n      0x01\n        /* \"#utility.yul\":10029:10035   */\n      dup3\n        /* \"#utility.yul\":10025:10039   */\n      add\n        /* \"#utility.yul\":10015:10039   */\n      swap2\n      pop\n        /* \"#utility.yul\":10084:10086   */\n      0x20\n        /* \"#utility.yul\":10073:10082   */\n      dup6\n        /* \"#utility.yul\":10069:10087   */\n      add\n        /* \"#utility.yul\":10056:10087   */\n      swap5\n      pop\n        /* \"#utility.yul\":9930:9934   */\n      0x20\n        /* \"#utility.yul\":9927:9928   */\n      dup2\n        /* \"#utility.yul\":9923:9935   */\n      add\n        /* \"#utility.yul\":9918:9935   */\n      swap1\n      pop\n        /* \"#utility.yul\":9893:10101   */\n      jump(tag_212)\n    tag_214:\n        /* \"#utility.yul\":10129:10135   */\n      dup7\n        /* \"#utility.yul\":10120:10127   */\n      dup4\n        /* \"#utility.yul\":10117:10136   */\n      lt\n        /* \"#utility.yul\":10114:10293   */\n      iszero\n      tag_215\n      jumpi\n        /* \"#utility.yul\":10187:10196   */\n      dup5\n        /* \"#utility.yul\":10182:10185   */\n      dup10\n        /* \"#utility.yul\":10178:10197   */\n      add\n        /* \"#utility.yul\":10172:10198   */\n      mload\n        /* \"#utility.yul\":10230:10278   */\n      tag_216\n        /* \"#utility.yul\":10272:10276   */\n      0x1f\n        /* \"#utility.yul\":10264:10270   */\n      dup10\n        /* \"#utility.yul\":10260:10277   */\n      and\n        /* \"#utility.yul\":10249:10258   */\n      dup3\n        /* \"#utility.yul\":10230:10278   */\n      tag_91\n      jump\t// in\n    tag_216:\n        /* \"#utility.yul\":10222:10228   */\n      dup4\n        /* \"#utility.yul\":10215:10279   */\n      sstore\n        /* \"#utility.yul\":10137:10293   */\n      pop\n        /* \"#utility.yul\":10114:10293   */\n    tag_215:\n        /* \"#utility.yul\":10339:10340   */\n      0x01\n        /* \"#utility.yul\":10335:10336   */\n      0x02\n        /* \"#utility.yul\":10327:10333   */\n      dup9\n        /* \"#utility.yul\":10323:10337   */\n      mul\n        /* \"#utility.yul\":10319:10341   */\n      add\n        /* \"#utility.yul\":10313:10317   */\n      dup9\n        /* \"#utility.yul\":10306:10342   */\n      sstore\n        /* \"#utility.yul\":9741:10352   */\n      pop\n      pop\n      pop\n        /* \"#utility.yul\":9704:10591   */\n    tag_207:\n      pop\n        /* \"#utility.yul\":9294:10597   */\n      pop\n      pop\n      pop\n        /* \"#utility.yul\":9202:10597   */\n      pop\n      pop\n      jump\t// out\n        /* \"#utility.yul\":10603:10766   */\n    tag_93:\n        /* \"#utility.yul\":10743:10758   */\n      0x496e76616c696420696e64657800000000000000000000000000000000000000\n        /* \"#utility.yul\":10739:10740   */\n      0x00\n        /* \"#utility.yul\":10731:10737   */\n      dup3\n        /* \"#utility.yul\":10727:10741   */\n      add\n        /* \"#utility.yul\":10720:10759   */\n      mstore\n        /* \"#utility.yul\":10603:10766   */\n      pop\n      jump\t// out\n        /* \"#utility.yul\":10772:11138   */\n    tag_94:\n        /* \"#utility.yul\":10914:10917   */\n      0x00\n        /* \"#utility.yul\":10935:11002   */\n      tag_219\n        /* \"#utility.yul\":10999:11001   */\n      0x0d\n        /* \"#utility.yul\":10994:10997   */\n      dup4\n        /* \"#utility.yul\":10935:11002   */\n      tag_74\n      jump\t// in\n    tag_219:\n        /* \"#utility.yul\":10928:11002   */\n      swap2\n      pop\n        /* \"#utility.yul\":11011:11104   */\n      tag_220\n        /* \"#utility.yul\":11100:11103   */\n      dup3\n        /* \"#utility.yul\":11011:11104   */\n      tag_93\n      jump\t// in\n    tag_220:\n        /* \"#utility.yul\":11129:11131   */\n      0x20\n        /* \"#utility.yul\":11124:11127   */\n      dup3\n        /* \"#utility.yul\":11120:11132   */\n      add\n        /* \"#utility.yul\":11113:11132   */\n      swap1\n      pop\n        /* \"#utility.yul\":10772:11138   */\n      swap2\n      swap1\n      pop\n      jump\t// out\n        /* \"#utility.yul\":11144:11563   */\n    tag_38:\n        /* \"#utility.yul\":11310:11314   */\n      0x00\n        /* \"#utility.yul\":11348:11350   */\n      0x20\n        /* \"#utility.yul\":11337:11346   */\n      dup3\n        /* \"#utility.yul\":11333:11351   */\n      add\n        /* \"#utility.yul\":11325:11351   */\n      swap1\n      pop\n        /* \"#utility.yul\":11397:11406   */\n      dup2\n        /* \"#utility.yul\":11391:11395   */\n      dup2\n        /* \"#utility.yul\":11387:11407   */\n      sub\n        /* \"#utility.yul\":11383:11384   */\n      0x00\n        /* \"#utility.yul\":11372:11381   */\n      dup4\n        /* \"#utility.yul\":11368:11385   */\n      add\n        /* \"#utility.yul\":11361:11408   */\n      mstore\n        /* \"#utility.yul\":11425:11556   */\n      tag_222\n        /* \"#utility.yul\":11551:11555   */\n      dup2\n        /* \"#utility.yul\":11425:11556   */\n      tag_94\n      jump\t// in\n    tag_222:\n        /* \"#utility.yul\":11417:11556   */\n      swap1\n      pop\n        /* \"#utility.yul\":11144:11563   */\n      swap2\n      swap1\n      pop\n      jump\t// out\n        /* \"#utility.yul\":11569:11749   */\n    tag_41:\n        /* \"#utility.yul\":11617:11694   */\n      0x4e487b7100000000000000000000000000000000000000000000000000000000\n        /* \"#utility.yul\":11614:11615   */\n      0x00\n        /* \"#utility.yul\":11607:11695   */\n      mstore\n        /* \"#utility.yul\":11714:11718   */\n      0x32\n        /* \"#utility.yul\":11711:11712   */\n      0x04\n        /* \"#utility.yul\":11704:11719   */\n      mstore\n        /* \"#utility.yul\":11738:11742   */\n      0x24\n        /* \"#utility.yul\":11735:11736   */\n      0x00\n        /* \"#utility.yul\":11728:11743   */\n      revert\n\n    auxdata: 0xa26469706673582212209fd0c0151d72410fbaf21a7b74a0c19c1ae4d62c1cea7fb1d9b79519a3c98f2c64736f6c634300081a0033\n}\n",
				"bytecode": {
					"linkReferences": {},
					"object": "6080604052348015600e575f80fd5b506109b48061001c5f395ff3fe608060405260043610610042575f3560e01c8063945b7bd61461004d578063c1bea1db14610077578063dc78302b1461009f578063ec7505b1146100dd57610049565b3661004957005b5f80fd5b348015610058575f80fd5b50610061610105565b60405161006e919061035d565b60405180910390f35b348015610082575f80fd5b5061009d600480360381019061009891906104ed565b610110565b005b3480156100aa575f80fd5b506100c560048036038101906100c09190610559565b610186565b6040516100d4939291906105e4565b60405180910390f35b3480156100e8575f80fd5b5061010360048036038101906100fe91906104ed565b6102bc565b005b5f8080549050905090565b5f60405180606001604052808581526020018481526020018381525090505f81908060018154018082558091505060019003905f5260205f2090600302015f909190919091505f820151815f01556020820151816001019081610173919061081a565b5060408201518160020155505050505050565b5f60605f808054905084106101d0576040517f08c379a00000000000000000000000000000000000000000000000000000000081526004016101c790610933565b60405180910390fd5b5f8085815481106101e4576101e3610951565b5b905f5260205f2090600302016040518060600160405290815f82015481526020016001820180546102149061064d565b80601f01602080910402602001604051908101604052809291908181526020018280546102409061064d565b801561028b5780601f106102625761010080835404028352916020019161028b565b820191905f5260205f20905b81548152906001019060200180831161026e57829003601f168201915b505050505081526020016002820154815250509050805f015181602001518260400151935093509350509193909250565b5f805490508310610302576040517f08c379a00000000000000000000000000000000000000000000000000000000081526004016102f990610933565b60405180910390fd5b5f80848154811061031657610315610951565b5b905f5260205f209060030201905082816001019081610335919061081a565b5081816002018190555050505050565b5f819050919050565b61035781610345565b82525050565b5f6020820190506103705f83018461034e565b92915050565b5f604051905090565b5f80fd5b5f80fd5b61039081610345565b811461039a575f80fd5b50565b5f813590506103ab81610387565b92915050565b5f80fd5b5f80fd5b5f601f19601f8301169050919050565b7f4e487b71000000000000000000000000000000000000000000000000000000005f52604160045260245ffd5b6103ff826103b9565b810181811067ffffffffffffffff8211171561041e5761041d6103c9565b5b80604052505050565b5f610430610376565b905061043c82826103f6565b919050565b5f67ffffffffffffffff82111561045b5761045a6103c9565b5b610464826103b9565b9050602081019050919050565b828183375f83830152505050565b5f61049161048c84610441565b610427565b9050828152602081018484840111156104ad576104ac6103b5565b5b6104b8848285610471565b509392505050565b5f82601f8301126104d4576104d36103b1565b5b81356104e484826020860161047f565b91505092915050565b5f805f606084860312156105045761050361037f565b5b5f6105118682870161039d565b935050602084013567ffffffffffffffff81111561053257610531610383565b5b61053e868287016104c0565b925050604061054f8682870161039d565b9150509250925092565b5f6020828403121561056e5761056d61037f565b5b5f61057b8482850161039d565b91505092915050565b5f81519050919050565b5f82825260208201905092915050565b8281835e5f83830152505050565b5f6105b682610584565b6105c0818561058e565b93506105d081856020860161059e565b6105d9816103b9565b840191505092915050565b5f6060820190506105f75f83018661034e565b818103602083015261060981856105ac565b9050610618604083018461034e565b949350505050565b7f4e487b71000000000000000000000000000000000000000000000000000000005f52602260045260245ffd5b5f600282049050600182168061066457607f821691505b60208210810361067757610676610620565b5b50919050565b5f819050815f5260205f209050919050565b5f6020601f8301049050919050565b5f82821b905092915050565b5f600883026106d97fffffffffffffffffffffffffffffffffffffffffffffffffffffffffffffffff8261069e565b6106e3868361069e565b95508019841693508086168417925050509392505050565b5f819050919050565b5f61071e61071961071484610345565b6106fb565b610345565b9050919050565b5f819050919050565b61073783610704565b61074b61074382610725565b8484546106aa565b825550505050565b5f90565b61075f610753565b61076a81848461072e565b505050565b5b8181101561078d576107825f82610757565b600181019050610770565b5050565b601f8211156107d2576107a38161067d565b6107ac8461068f565b810160208510156107bb578190505b6107cf6107c78561068f565b83018261076f565b50505b505050565b5f82821c905092915050565b5f6107f25f19846008026107d7565b1980831691505092915050565b5f61080a83836107e3565b9150826002028217905092915050565b61082382610584565b67ffffffffffffffff81111561083c5761083b6103c9565b5b610846825461064d565b610851828285610791565b5f60209050601f831160018114610882575f8415610870578287015190505b61087a85826107ff565b8655506108e1565b601f1984166108908661067d565b5f5b828110156108b757848901518255600182019150602085019450602081019050610892565b868310156108d457848901516108d0601f8916826107e3565b8355505b6001600288020188555050505b505050505050565b7f496e76616c696420696e646578000000000000000000000000000000000000005f82015250565b5f61091d600d8361058e565b9150610928826108e9565b602082019050919050565b5f6020820190508181035f83015261094a81610911565b9050919050565b7f4e487b71000000000000000000000000000000000000000000000000000000005f52603260045260245ffdfea26469706673582212209fd0c0151d72410fbaf21a7b74a0c19c1ae4d62c1cea7fb1d9b79519a3c98f2c64736f6c634300081a0033",
					"opcodes": "PUSH1 0x80 PUSH1 0x40 MSTORE CALLVALUE DUP1 ISZERO PUSH1 0xE JUMPI PUSH0 DUP1 REVERT JUMPDEST POP PUSH2 0x9B4 DUP1 PUSH2 0x1C PUSH0 CODECOPY PUSH0 RETURN INVALID PUSH1 0x80 PUSH1 0x40 MSTORE PUSH1 0x4 CALLDATASIZE LT PUSH2 0x42 JUMPI PUSH0 CALLDATALOAD PUSH1 0xE0 SHR DUP1 PUSH4 0x945B7BD6 EQ PUSH2 0x4D JUMPI DUP1 PUSH4 0xC1BEA1DB EQ PUSH2 0x77 JUMPI DUP1 PUSH4 0xDC78302B EQ PUSH2 0x9F JUMPI DUP1 PUSH4 0xEC7505B1 EQ PUSH2 0xDD JUMPI PUSH2 0x49 JUMP JUMPDEST CALLDATASIZE PUSH2 0x49 JUMPI STOP JUMPDEST PUSH0 DUP1 REVERT JUMPDEST CALLVALUE DUP1 ISZERO PUSH2 0x58 JUMPI PUSH0 DUP1 REVERT JUMPDEST POP PUSH2 0x61 PUSH2 0x105 JUMP JUMPDEST PUSH1 0x40 MLOAD PUSH2 0x6E SWAP2 SWAP1 PUSH2 0x35D JUMP JUMPDEST PUSH1 0x40 MLOAD DUP1 SWAP2 SUB SWAP1 RETURN JUMPDEST CALLVALUE DUP1 ISZERO PUSH2 0x82 JUMPI PUSH0 DUP1 REVERT JUMPDEST POP PUSH2 0x9D PUSH1 0x4 DUP1 CALLDATASIZE SUB DUP2 ADD SWAP1 PUSH2 0x98 SWAP2 SWAP1 PUSH2 0x4ED JUMP JUMPDEST PUSH2 0x110 JUMP JUMPDEST STOP JUMPDEST CALLVALUE DUP1 ISZERO PUSH2 0xAA JUMPI PUSH0 DUP1 REVERT JUMPDEST POP PUSH2 0xC5 PUSH1 0x4 DUP1 CALLDATASIZE SUB DUP2 ADD SWAP1 PUSH2 0xC0 SWAP2 SWAP1 PUSH2 0x559 JUMP JUMPDEST PUSH2 0x186 JUMP JUMPDEST PUSH1 0x40 MLOAD PUSH2 0xD4 SWAP4 SWAP3 SWAP2 SWAP1 PUSH2 0x5E4 JUMP JUMPDEST PUSH1 0x40 MLOAD DUP1 SWAP2 SUB SWAP1 RETURN JUMPDEST CALLVALUE DUP1 ISZERO PUSH2 0xE8 JUMPI PUSH0 DUP1 REVERT JUMPDEST POP PUSH2 0x103 PUSH1 0x4 DUP1 CALLDATASIZE SUB DUP2 ADD SWAP1 PUSH2 0xFE SWAP2 SWAP1 PUSH2 0x4ED JUMP JUMPDEST PUSH2 0x2BC JUMP JUMPDEST STOP JUMPDEST PUSH0 DUP1 DUP1 SLOAD SWAP1 POP SWAP1 POP SWAP1 JUMP JUMPDEST PUSH0 PUSH1 0x40 MLOAD DUP1 PUSH1 0x60 ADD PUSH1 0x40 MSTORE DUP1 DUP6 DUP2 MSTORE PUSH1 0x20 ADD DUP5 DUP2 MSTORE PUSH1 0x20 ADD DUP4 DUP2 MSTORE POP SWAP1 POP PUSH0 DUP2 SWAP1 DUP1 PUSH1 0x1 DUP2 SLOAD ADD DUP1 DUP3 SSTORE DUP1 SWAP2 POP POP PUSH1 0x1 SWAP1 SUB SWAP1 PUSH0 MSTORE PUSH1 0x20 PUSH0 KECCAK256 SWAP1 PUSH1 0x3 MUL ADD PUSH0 SWAP1 SWAP2 SWAP1 SWAP2 SWAP1 SWAP2 POP PUSH0 DUP3 ADD MLOAD DUP2 PUSH0 ADD SSTORE PUSH1 0x20 DUP3 ADD MLOAD DUP2 PUSH1 0x1 ADD SWAP1 DUP2 PUSH2 0x173 SWAP2 SWAP1 PUSH2 0x81A JUMP JUMPDEST POP PUSH1 0x40 DUP3 ADD MLOAD DUP2 PUSH1 0x2 ADD SSTORE POP POP POP POP POP POP JUMP JUMPDEST PUSH0 PUSH1 0x60 PUSH0 DUP1 DUP1 SLOAD SWAP1 POP DUP5 LT PUSH2 0x1D0 JUMPI PUSH1 0x40 MLOAD PUSH32 0x8C379A000000000000000000000000000000000000000000000000000000000 DUP2 MSTORE PUSH1 0x4 ADD PUSH2 0x1C7 SWAP1 PUSH2 0x933 JUMP JUMPDEST PUSH1 0x40 MLOAD DUP1 SWAP2 SUB SWAP1 REVERT JUMPDEST PUSH0 DUP1 DUP6 DUP2 SLOAD DUP2 LT PUSH2 0x1E4 JUMPI PUSH2 0x1E3 PUSH2 0x951 JUMP JUMPDEST JUMPDEST SWAP1 PUSH0 MSTORE PUSH1 0x20 PUSH0 KECCAK256 SWAP1 PUSH1 0x3 MUL ADD PUSH1 0x40 MLOAD DUP1 PUSH1 0x60 ADD PUSH1 0x40 MSTORE SWAP1 DUP2 PUSH0 DUP3 ADD SLOAD DUP2 MSTORE PUSH1 0x20 ADD PUSH1 0x1 DUP3 ADD DUP1 SLOAD PUSH2 0x214 SWAP1 PUSH2 0x64D JUMP JUMPDEST DUP1 PUSH1 0x1F ADD PUSH1 0x20 DUP1 SWAP2 DIV MUL PUSH1 0x20 ADD PUSH1 0x40 MLOAD SWAP1 DUP2 ADD PUSH1 0x40 MSTORE DUP1 SWAP3 SWAP2 SWAP1 DUP2 DUP2 MSTORE PUSH1 0x20 ADD DUP3 DUP1 SLOAD PUSH2 0x240 SWAP1 PUSH2 0x64D JUMP JUMPDEST DUP1 ISZERO PUSH2 0x28B JUMPI DUP1 PUSH1 0x1F LT PUSH2 0x262 JUMPI PUSH2 0x100 DUP1 DUP4 SLOAD DIV MUL DUP4 MSTORE SWAP2 PUSH1 0x20 ADD SWAP2 PUSH2 0x28B JUMP JUMPDEST DUP3 ADD SWAP2 SWAP1 PUSH0 MSTORE PUSH1 0x20 PUSH0 KECCAK256 SWAP1 JUMPDEST DUP2 SLOAD DUP2 MSTORE SWAP1 PUSH1 0x1 ADD SWAP1 PUSH1 0x20 ADD DUP1 DUP4 GT PUSH2 0x26E JUMPI DUP3 SWAP1 SUB PUSH1 0x1F AND DUP3 ADD SWAP2 JUMPDEST POP POP POP POP POP DUP2 MSTORE PUSH1 0x20 ADD PUSH1 0x2 DUP3 ADD SLOAD DUP2 MSTORE POP POP SWAP1 POP DUP1 PUSH0 ADD MLOAD DUP2 PUSH1 0x20 ADD MLOAD DUP3 PUSH1 0x40 ADD MLOAD SWAP4 POP SWAP4 POP SWAP4 POP POP SWAP2 SWAP4 SWAP1 SWAP3 POP JUMP JUMPDEST PUSH0 DUP1 SLOAD SWAP1 POP DUP4 LT PUSH2 0x302 JUMPI PUSH1 0x40 MLOAD PUSH32 0x8C379A000000000000000000000000000000000000000000000000000000000 DUP2 MSTORE PUSH1 0x4 ADD PUSH2 0x2F9 SWAP1 PUSH2 0x933 JUMP JUMPDEST PUSH1 0x40 MLOAD DUP1 SWAP2 SUB SWAP1 REVERT JUMPDEST PUSH0 DUP1 DUP5 DUP2 SLOAD DUP2 LT PUSH2 0x316 JUMPI PUSH2 0x315 PUSH2 0x951 JUMP JUMPDEST JUMPDEST SWAP1 PUSH0 MSTORE PUSH1 0x20 PUSH0 KECCAK256 SWAP1 PUSH1 0x3 MUL ADD SWAP1 POP DUP3 DUP2 PUSH1 0x1 ADD SWAP1 DUP2 PUSH2 0x335 SWAP2 SWAP1 PUSH2 0x81A JUMP JUMPDEST POP DUP2 DUP2 PUSH1 0x2 ADD DUP2 SWAP1 SSTORE POP POP POP POP POP JUMP JUMPDEST PUSH0 DUP2 SWAP1 POP SWAP2 SWAP1 POP JUMP JUMPDEST PUSH2 0x357 DUP2 PUSH2 0x345 JUMP JUMPDEST DUP3 MSTORE POP POP JUMP JUMPDEST PUSH0 PUSH1 0x20 DUP3 ADD SWAP1 POP PUSH2 0x370 PUSH0 DUP4 ADD DUP5 PUSH2 0x34E JUMP JUMPDEST SWAP3 SWAP2 POP POP JUMP JUMPDEST PUSH0 PUSH1 0x40 MLOAD SWAP1 POP SWAP1 JUMP JUMPDEST PUSH0 DUP1 REVERT JUMPDEST PUSH0 DUP1 REVERT JUMPDEST PUSH2 0x390 DUP2 PUSH2 0x345 JUMP JUMPDEST DUP2 EQ PUSH2 0x39A JUMPI PUSH0 DUP1 REVERT JUMPDEST POP JUMP JUMPDEST PUSH0 DUP2 CALLDATALOAD SWAP1 POP PUSH2 0x3AB DUP2 PUSH2 0x387 JUMP JUMPDEST SWAP3 SWAP2 POP POP JUMP JUMPDEST PUSH0 DUP1 REVERT JUMPDEST PUSH0 DUP1 REVERT JUMPDEST PUSH0 PUSH1 0x1F NOT PUSH1 0x1F DUP4 ADD AND SWAP1 POP SWAP2 SWAP1 POP JUMP JUMPDEST PUSH32 0x4E487B7100000000000000000000000000000000000000000000000000000000 PUSH0 MSTORE PUSH1 0x41 PUSH1 0x4 MSTORE PUSH1 0x24 PUSH0 REVERT JUMPDEST PUSH2 0x3FF DUP3 PUSH2 0x3B9 JUMP JUMPDEST DUP2 ADD DUP2 DUP2 LT PUSH8 0xFFFFFFFFFFFFFFFF DUP3 GT OR ISZERO PUSH2 0x41E JUMPI PUSH2 0x41D PUSH2 0x3C9 JUMP JUMPDEST JUMPDEST DUP1 PUSH1 0x40 MSTORE POP POP POP JUMP JUMPDEST PUSH0 PUSH2 0x430 PUSH2 0x376 JUMP JUMPDEST SWAP1 POP PUSH2 0x43C DUP3 DUP3 PUSH2 0x3F6 JUMP JUMPDEST SWAP2 SWAP1 POP JUMP JUMPDEST PUSH0 PUSH8 0xFFFFFFFFFFFFFFFF DUP3 GT ISZERO PUSH2 0x45B JUMPI PUSH2 0x45A PUSH2 0x3C9 JUMP JUMPDEST JUMPDEST PUSH2 0x464 DUP3 PUSH2 0x3B9 JUMP JUMPDEST SWAP1 POP PUSH1 0x20 DUP2 ADD SWAP1 POP SWAP2 SWAP1 POP JUMP JUMPDEST DUP3 DUP2 DUP4 CALLDATACOPY PUSH0 DUP4 DUP4 ADD MSTORE POP POP POP JUMP JUMPDEST PUSH0 PUSH2 0x491 PUSH2 0x48C DUP5 PUSH2 0x441 JUMP JUMPDEST PUSH2 0x427 JUMP JUMPDEST SWAP1 POP DUP3 DUP2 MSTORE PUSH1 0x20 DUP2 ADD DUP5 DUP5 DUP5 ADD GT ISZERO PUSH2 0x4AD JUMPI PUSH2 0x4AC PUSH2 0x3B5 JUMP JUMPDEST JUMPDEST PUSH2 0x4B8 DUP5 DUP3 DUP6 PUSH2 0x471 JUMP JUMPDEST POP SWAP4 SWAP3 POP POP POP JUMP JUMPDEST PUSH0 DUP3 PUSH1 0x1F DUP4 ADD SLT PUSH2 0x4D4 JUMPI PUSH2 0x4D3 PUSH2 0x3B1 JUMP JUMPDEST JUMPDEST DUP2 CALLDATALOAD PUSH2 0x4E4 DUP5 DUP3 PUSH1 0x20 DUP7 ADD PUSH2 0x47F JUMP JUMPDEST SWAP2 POP POP SWAP3 SWAP2 POP POP JUMP JUMPDEST PUSH0 DUP1 PUSH0 PUSH1 0x60 DUP5 DUP7 SUB SLT ISZERO PUSH2 0x504 JUMPI PUSH2 0x503 PUSH2 0x37F JUMP JUMPDEST JUMPDEST PUSH0 PUSH2 0x511 DUP7 DUP3 DUP8 ADD PUSH2 0x39D JUMP JUMPDEST SWAP4 POP POP PUSH1 0x20 DUP5 ADD CALLDATALOAD PUSH8 0xFFFFFFFFFFFFFFFF DUP2 GT ISZERO PUSH2 0x532 JUMPI PUSH2 0x531 PUSH2 0x383 JUMP JUMPDEST JUMPDEST PUSH2 0x53E DUP7 DUP3 DUP8 ADD PUSH2 0x4C0 JUMP JUMPDEST SWAP3 POP POP PUSH1 0x40 PUSH2 0x54F DUP7 DUP3 DUP8 ADD PUSH2 0x39D JUMP JUMPDEST SWAP2 POP POP SWAP3 POP SWAP3 POP SWAP3 JUMP JUMPDEST PUSH0 PUSH1 0x20 DUP3 DUP5 SUB SLT ISZERO PUSH2 0x56E JUMPI PUSH2 0x56D PUSH2 0x37F JUMP JUMPDEST JUMPDEST PUSH0 PUSH2 0x57B DUP5 DUP3 DUP6 ADD PUSH2 0x39D JUMP JUMPDEST SWAP2 POP POP SWAP3 SWAP2 POP POP JUMP JUMPDEST PUSH0 DUP2 MLOAD SWAP1 POP SWAP2 SWAP1 POP JUMP JUMPDEST PUSH0 DUP3 DUP3 MSTORE PUSH1 0x20 DUP3 ADD SWAP1 POP SWAP3 SWAP2 POP POP JUMP JUMPDEST DUP3 DUP2 DUP4 MCOPY PUSH0 DUP4 DUP4 ADD MSTORE POP POP POP JUMP JUMPDEST PUSH0 PUSH2 0x5B6 DUP3 PUSH2 0x584 JUMP JUMPDEST PUSH2 0x5C0 DUP2 DUP6 PUSH2 0x58E JUMP JUMPDEST SWAP4 POP PUSH2 0x5D0 DUP2 DUP6 PUSH1 0x20 DUP7 ADD PUSH2 0x59E JUMP JUMPDEST PUSH2 0x5D9 DUP2 PUSH2 0x3B9 JUMP JUMPDEST DUP5 ADD SWAP2 POP POP SWAP3 SWAP2 POP POP JUMP JUMPDEST PUSH0 PUSH1 0x60 DUP3 ADD SWAP1 POP PUSH2 0x5F7 PUSH0 DUP4 ADD DUP7 PUSH2 0x34E JUMP JUMPDEST DUP2 DUP2 SUB PUSH1 0x20 DUP4 ADD MSTORE PUSH2 0x609 DUP2 DUP6 PUSH2 0x5AC JUMP JUMPDEST SWAP1 POP PUSH2 0x618 PUSH1 0x40 DUP4 ADD DUP5 PUSH2 0x34E JUMP JUMPDEST SWAP5 SWAP4 POP POP POP POP JUMP JUMPDEST PUSH32 0x4E487B7100000000000000000000000000000000000000000000000000000000 PUSH0 MSTORE PUSH1 0x22 PUSH1 0x4 MSTORE PUSH1 0x24 PUSH0 REVERT JUMPDEST PUSH0 PUSH1 0x2 DUP3 DIV SWAP1 POP PUSH1 0x1 DUP3 AND DUP1 PUSH2 0x664 JUMPI PUSH1 0x7F DUP3 AND SWAP2 POP JUMPDEST PUSH1 0x20 DUP3 LT DUP2 SUB PUSH2 0x677 JUMPI PUSH2 0x676 PUSH2 0x620 JUMP JUMPDEST JUMPDEST POP SWAP2 SWAP1 POP JUMP JUMPDEST PUSH0 DUP2 SWAP1 POP DUP2 PUSH0 MSTORE PUSH1 0x20 PUSH0 KECCAK256 SWAP1 POP SWAP2 SWAP1 POP JUMP JUMPDEST PUSH0 PUSH1 0x20 PUSH1 0x1F DUP4 ADD DIV SWAP1 POP SWAP2 SWAP1 POP JUMP JUMPDEST PUSH0 DUP3 DUP3 SHL SWAP1 POP SWAP3 SWAP2 POP POP JUMP JUMPDEST PUSH0 PUSH1 0x8 DUP4 MUL PUSH2 0x6D9 PUSH32 0xFFFFFFFFFFFFFFFFFFFFFFFFFFFFFFFFFFFFFFFFFFFFFFFFFFFFFFFFFFFFFFFF DUP3 PUSH2 0x69E JUMP JUMPDEST PUSH2 0x6E3 DUP7 DUP4 PUSH2 0x69E JUMP JUMPDEST SWAP6 POP DUP1 NOT DUP5 AND SWAP4 POP DUP1 DUP7 AND DUP5 OR SWAP3 POP POP POP SWAP4 SWAP3 POP POP POP JUMP JUMPDEST PUSH0 DUP2 SWAP1 POP SWAP2 SWAP1 POP JUMP JUMPDEST PUSH0 PUSH2 0x71E PUSH2 0x719 PUSH2 0x714 DUP5 PUSH2 0x345 JUMP JUMPDEST PUSH2 0x6FB JUMP JUMPDEST PUSH2 0x345 JUMP JUMPDEST SWAP1 POP SWAP2 SWAP1 POP JUMP JUMPDEST PUSH0 DUP2 SWAP1 POP SWAP2 SWAP1 POP JUMP JUMPDEST PUSH2 0x737 DUP4 PUSH2 0x704 JUMP JUMPDEST PUSH2 0x74B PUSH2 0x743 DUP3 PUSH2 0x725 JUMP JUMPDEST DUP5 DUP5 SLOAD PUSH2 0x6AA JUMP JUMPDEST DUP3 SSTORE POP POP POP POP JUMP JUMPDEST PUSH0 SWAP1 JUMP JUMPDEST PUSH2 0x75F PUSH2 0x753 JUMP JUMPDEST PUSH2 0x76A DUP2 DUP5 DUP5 PUSH2 0x72E JUMP JUMPDEST POP POP POP JUMP JUMPDEST JUMPDEST DUP2 DUP2 LT ISZERO PUSH2 0x78D JUMPI PUSH2 0x782 PUSH0 DUP3 PUSH2 0x757 JUMP JUMPDEST PUSH1 0x1 DUP2 ADD SWAP1 POP PUSH2 0x770 JUMP JUMPDEST POP POP JUMP JUMPDEST PUSH1 0x1F DUP3 GT ISZERO PUSH2 0x7D2 JUMPI PUSH2 0x7A3 DUP2 PUSH2 0x67D JUMP JUMPDEST PUSH2 0x7AC DUP5 PUSH2 0x68F JUMP JUMPDEST DUP2 ADD PUSH1 0x20 DUP6 LT ISZERO PUSH2 0x7BB JUMPI DUP2 SWAP1 POP JUMPDEST PUSH2 0x7CF PUSH2 0x7C7 DUP6 PUSH2 0x68F JUMP JUMPDEST DUP4 ADD DUP3 PUSH2 0x76F JUMP JUMPDEST POP POP JUMPDEST POP POP POP JUMP JUMPDEST PUSH0 DUP3 DUP3 SHR SWAP1 POP SWAP3 SWAP2 POP POP JUMP JUMPDEST PUSH0 PUSH2 0x7F2 PUSH0 NOT DUP5 PUSH1 0x8 MUL PUSH2 0x7D7 JUMP JUMPDEST NOT DUP1 DUP4 AND SWAP2 POP POP SWAP3 SWAP2 POP POP JUMP JUMPDEST PUSH0 PUSH2 0x80A DUP4 DUP4 PUSH2 0x7E3 JUMP JUMPDEST SWAP2 POP DUP3 PUSH1 0x2 MUL DUP3 OR SWAP1 POP SWAP3 SWAP2 POP POP JUMP JUMPDEST PUSH2 0x823 DUP3 PUSH2 0x584 JUMP JUMPDEST PUSH8 0xFFFFFFFFFFFFFFFF DUP2 GT ISZERO PUSH2 0x83C JUMPI PUSH2 0x83B PUSH2 0x3C9 JUMP JUMPDEST JUMPDEST PUSH2 0x846 DUP3 SLOAD PUSH2 0x64D JUMP JUMPDEST PUSH2 0x851 DUP3 DUP3 DUP6 PUSH2 0x791 JUMP JUMPDEST PUSH0 PUSH1 0x20 SWAP1 POP PUSH1 0x1F DUP4 GT PUSH1 0x1 DUP2 EQ PUSH2 0x882 JUMPI PUSH0 DUP5 ISZERO PUSH2 0x870 JUMPI DUP3 DUP8 ADD MLOAD SWAP1 POP JUMPDEST PUSH2 0x87A DUP6 DUP3 PUSH2 0x7FF JUMP JUMPDEST DUP7 SSTORE POP PUSH2 0x8E1 JUMP JUMPDEST PUSH1 0x1F NOT DUP5 AND PUSH2 0x890 DUP7 PUSH2 0x67D JUMP JUMPDEST PUSH0 JUMPDEST DUP3 DUP2 LT ISZERO PUSH2 0x8B7 JUMPI DUP5 DUP10 ADD MLOAD DUP3 SSTORE PUSH1 0x1 DUP3 ADD SWAP2 POP PUSH1 0x20 DUP6 ADD SWAP5 POP PUSH1 0x20 DUP2 ADD SWAP1 POP PUSH2 0x892 JUMP JUMPDEST DUP7 DUP4 LT ISZERO PUSH2 0x8D4 JUMPI DUP5 DUP10 ADD MLOAD PUSH2 0x8D0 PUSH1 0x1F DUP10 AND DUP3 PUSH2 0x7E3 JUMP JUMPDEST DUP4 SSTORE POP JUMPDEST PUSH1 0x1 PUSH1 0x2 DUP9 MUL ADD DUP9 SSTORE POP POP POP JUMPDEST POP POP POP POP POP POP JUMP JUMPDEST PUSH32 0x496E76616C696420696E64657800000000000000000000000000000000000000 PUSH0 DUP3 ADD MSTORE POP JUMP JUMPDEST PUSH0 PUSH2 0x91D PUSH1 0xD DUP4 PUSH2 0x58E JUMP JUMPDEST SWAP2 POP PUSH2 0x928 DUP3 PUSH2 0x8E9 JUMP JUMPDEST PUSH1 0x20 DUP3 ADD SWAP1 POP SWAP2 SWAP1 POP JUMP JUMPDEST PUSH0 PUSH1 0x20 DUP3 ADD SWAP1 POP DUP2 DUP2 SUB PUSH0 DUP4 ADD MSTORE PUSH2 0x94A DUP2 PUSH2 0x911 JUMP JUMPDEST SWAP1 POP SWAP2 SWAP1 POP JUMP JUMPDEST PUSH32 0x4E487B7100000000000000000000000000000000000000000000000000000000 PUSH0 MSTORE PUSH1 0x32 PUSH1 0x4 MSTORE PUSH1 0x24 PUSH0 REVERT INVALID LOG2 PUSH5 0x6970667358 0x22 SLT KECCAK256 SWAP16 0xD0 0xC0 ISZERO SAR PUSH19 0x410FBAF21A7B74A0C19C1AE4D62C1CEA7FB1D9 0xB7 SWAP6 NOT LOG3 0xC9 DUP16 0x2C PUSH5 0x736F6C6343 STOP ADDMOD BYTE STOP CALLER "
				},
				"gasEstimates": {
					"creation": {
						"codeDepositCost": "496800",
						"executionCost": "528",
						"totalCost": "497328"
					},
					"external": {
						"addStudent(uint256,string,uint256)": "infinite",
						"getNumberOfStudents()": "2418",
						"getStudentByIndex(uint256)": "infinite",
						"updateStudent(uint256,string,uint256)": "infinite"
					}
				},
				"methodIdentifiers": {
					"addStudent(uint256,string,uint256)": "c1bea1db",
					"getNumberOfStudents()": "945b7bd6",
					"getStudentByIndex(uint256)": "dc78302b",
					"updateStudent(uint256,string,uint256)": "ec7505b1"
				}
			},
			"storageLayout": {
				"storage": [
					{
						"astId": 12,
						"contract": "student.sol:StudentData",
						"label": "students",
						"offset": 0,
						"slot": "0",
						"type": "t_array(t_struct(Student)8_storage)dyn_storage"
					}
				],
				"types": {
					"t_array(t_struct(Student)8_storage)dyn_storage": {
						"base": "t_struct(Student)8_storage",
						"encoding": "dynamic_array",
						"label": "struct StudentData.Student[]",
						"numberOfBytes": "32"
					},
					"t_string_storage": {
						"encoding": "bytes",
						"label": "string",
						"numberOfBytes": "32"
					},
					"t_struct(Student)8_storage": {
						"encoding": "inplace",
						"label": "struct StudentData.Student",
						"members": [
							{
								"astId": 3,
								"contract": "student.sol:StudentData",
								"label": "studentId",
								"offset": 0,
								"slot": "0",
								"type": "t_uint256"
							},
							{
								"astId": 5,
								"contract": "student.sol:StudentData",
								"label": "name",
								"offset": 0,
								"slot": "1",
								"type": "t_string_storage"
							},
							{
								"astId": 7,
								"contract": "student.sol:StudentData",
								"label": "age",
								"offset": 0,
								"slot": "2",
								"type": "t_uint256"
							}
						],
						"numberOfBytes": "96"
					},
					"t_uint256": {
						"encoding": "inplace",
						"label": "uint256",
						"numberOfBytes": "32"
					}
				}
			},
			"userdoc": {
				"kind": "user",
				"methods": {},
				"version": 1
			}
		}
	}
}